{
  "abi": [
    {
      "type": "constructor",
      "inputs": [],
      "stateMutability": "nonpayable"
    },
    {
      "type": "function",
      "name": "EXECUTE_PERMISSION_ID",
      "inputs": [],
      "outputs": [
        {
          "name": "",
          "type": "bytes32",
          "internalType": "bytes32"
        }
      ],
      "stateMutability": "view"
    },
    {
      "type": "function",
      "name": "INT_STATE_TREE_DEPTH",
      "inputs": [],
      "outputs": [
        {
          "name": "",
          "type": "uint8",
          "internalType": "uint8"
        }
      ],
      "stateMutability": "view"
    },
    {
      "type": "function",
      "name": "STATE_TREE_DEPTH",
      "inputs": [],
      "outputs": [
        {
          "name": "",
          "type": "uint8",
          "internalType": "uint8"
        }
      ],
      "stateMutability": "view"
    },
    {
      "type": "function",
      "name": "UPGRADE_PLUGIN_PERMISSION_ID",
      "inputs": [],
      "outputs": [
        {
          "name": "",
          "type": "bytes32",
          "internalType": "bytes32"
        }
      ],
      "stateMutability": "view"
    },
    {
      "type": "function",
      "name": "VOTE_OPTION_TREE_DEPTH",
      "inputs": [],
      "outputs": [
        {
          "name": "",
          "type": "uint8",
          "internalType": "uint8"
        }
      ],
      "stateMutability": "view"
    },
    {
      "type": "function",
      "name": "canExecute",
      "inputs": [
        {
          "name": "_proposalId",
          "type": "uint256",
          "internalType": "uint256"
        }
      ],
      "outputs": [
        {
          "name": "",
          "type": "bool",
          "internalType": "bool"
        }
      ],
      "stateMutability": "view"
    },
    {
      "type": "function",
      "name": "checkerFactory",
      "inputs": [],
      "outputs": [
        {
          "name": "",
          "type": "address",
          "internalType": "contract IERC20VotesCheckerFactory"
        }
      ],
      "stateMutability": "view"
    },
    {
      "type": "function",
      "name": "coordinatorPubKey",
      "inputs": [],
      "outputs": [
        {
          "name": "x",
          "type": "uint256",
          "internalType": "uint256"
        },
        {
          "name": "y",
          "type": "uint256",
          "internalType": "uint256"
        }
      ],
      "stateMutability": "view"
    },
    {
      "type": "function",
      "name": "createProposal",
      "inputs": [
        {
          "name": "_metadata",
          "type": "bytes",
          "internalType": "bytes"
        },
        {
          "name": "_actions",
          "type": "tuple[]",
          "internalType": "struct IDAO.Action[]",
          "components": [
            {
              "name": "to",
              "type": "address",
              "internalType": "address"
            },
            {
              "name": "value",
              "type": "uint256",
              "internalType": "uint256"
            },
            {
              "name": "data",
              "type": "bytes",
              "internalType": "bytes"
            }
          ]
        },
        {
          "name": "_allowFailureMap",
          "type": "uint256",
          "internalType": "uint256"
        },
        {
          "name": "_startDate",
          "type": "uint64",
          "internalType": "uint64"
        },
        {
          "name": "_endDate",
          "type": "uint64",
          "internalType": "uint64"
        }
      ],
      "outputs": [
        {
          "name": "proposalId",
          "type": "uint256",
          "internalType": "uint256"
        }
      ],
      "stateMutability": "nonpayable"
    },
    {
      "type": "function",
      "name": "customProposalParamsABI",
      "inputs": [],
      "outputs": [
        {
          "name": "",
          "type": "string",
          "internalType": "string"
        }
      ],
      "stateMutability": "pure"
    },
    {
      "type": "function",
      "name": "dao",
      "inputs": [],
      "outputs": [
        {
          "name": "",
          "type": "address",
          "internalType": "contract IDAO"
        }
      ],
      "stateMutability": "view"
    },
    {
      "type": "function",
      "name": "execute",
      "inputs": [
        {
          "name": "_proposalId",
          "type": "uint256",
          "internalType": "uint256"
        }
      ],
      "outputs": [],
      "stateMutability": "nonpayable"
    },
    {
      "type": "function",
      "name": "getVotingToken",
      "inputs": [],
      "outputs": [
        {
          "name": "",
          "type": "address",
          "internalType": "contract IVotesUpgradeable"
        }
      ],
      "stateMutability": "view"
    },
    {
      "type": "function",
      "name": "hasSucceeded",
      "inputs": [
        {
          "name": "_proposalId",
          "type": "uint256",
          "internalType": "uint256"
        }
      ],
      "outputs": [
        {
          "name": "",
          "type": "bool",
          "internalType": "bool"
        }
      ],
      "stateMutability": "view"
    },
    {
      "type": "function",
      "name": "implementation",
      "inputs": [],
      "outputs": [
        {
          "name": "",
          "type": "address",
          "internalType": "address"
        }
      ],
      "stateMutability": "view"
    },
    {
      "type": "function",
      "name": "initialize",
      "inputs": [
        {
          "name": "_dao",
          "type": "address",
          "internalType": "contract IDAO"
        },
        {
          "name": "_maci",
          "type": "address",
          "internalType": "address"
        },
        {
          "name": "_coordinatorPubKey",
          "type": "tuple",
          "internalType": "struct DomainObjs.PublicKey",
          "components": [
            {
              "name": "x",
              "type": "uint256",
              "internalType": "uint256"
            },
            {
              "name": "y",
              "type": "uint256",
              "internalType": "uint256"
            }
          ]
        },
        {
          "name": "_votingSettings",
          "type": "tuple",
          "internalType": "struct IMaciVoting.VotingSettings",
          "components": [
            {
              "name": "minParticipation",
              "type": "uint32",
              "internalType": "uint32"
            },
            {
              "name": "minDuration",
              "type": "uint64",
              "internalType": "uint64"
            },
            {
              "name": "minProposerVotingPower",
              "type": "uint256",
              "internalType": "uint256"
            }
          ]
        },
        {
          "name": "_token",
          "type": "address",
          "internalType": "contract IVotesUpgradeable"
        },
        {
          "name": "_verifier",
          "type": "address",
          "internalType": "address"
        },
        {
          "name": "_vkRegistry",
          "type": "address",
          "internalType": "address"
        },
        {
          "name": "_policyFactory",
          "type": "address",
          "internalType": "address"
        },
        {
          "name": "_checkerFactory",
          "type": "address",
          "internalType": "address"
        },
        {
          "name": "_voiceCreditProxyFactory",
          "type": "address",
          "internalType": "address"
        }
      ],
      "outputs": [],
      "stateMutability": "nonpayable"
    },
    {
      "type": "function",
      "name": "maci",
      "inputs": [],
      "outputs": [
        {
          "name": "",
          "type": "address",
          "internalType": "contract MACI"
        }
      ],
      "stateMutability": "view"
    },
    {
      "type": "function",
      "name": "minParticipation",
      "inputs": [],
      "outputs": [
        {
          "name": "",
          "type": "uint32",
          "internalType": "uint32"
        }
      ],
      "stateMutability": "view"
    },
    {
      "type": "function",
      "name": "minProposerVotingPower",
      "inputs": [],
      "outputs": [
        {
          "name": "",
          "type": "uint256",
          "internalType": "uint256"
        }
      ],
      "stateMutability": "view"
    },
    {
      "type": "function",
      "name": "pluginType",
      "inputs": [],
      "outputs": [
        {
          "name": "",
          "type": "uint8",
          "internalType": "enum IPlugin.PluginType"
        }
      ],
      "stateMutability": "pure"
    },
    {
      "type": "function",
      "name": "policyFactory",
      "inputs": [],
      "outputs": [
        {
          "name": "",
          "type": "address",
          "internalType": "contract IERC20VotesPolicyFactory"
        }
      ],
      "stateMutability": "view"
    },
    {
      "type": "function",
      "name": "proposalCount",
      "inputs": [],
      "outputs": [
        {
          "name": "",
          "type": "uint256",
          "internalType": "uint256"
        }
      ],
      "stateMutability": "view"
    },
    {
      "type": "function",
      "name": "protocolVersion",
      "inputs": [],
      "outputs": [
        {
          "name": "",
          "type": "uint8[3]",
          "internalType": "uint8[3]"
        }
      ],
      "stateMutability": "pure"
    },
    {
      "type": "function",
      "name": "proxiableUUID",
      "inputs": [],
      "outputs": [
        {
          "name": "",
          "type": "bytes32",
          "internalType": "bytes32"
        }
      ],
      "stateMutability": "view"
    },
    {
      "type": "function",
      "name": "supportsInterface",
      "inputs": [
        {
          "name": "_interfaceId",
          "type": "bytes4",
          "internalType": "bytes4"
        }
      ],
      "outputs": [
        {
          "name": "",
          "type": "bool",
          "internalType": "bool"
        }
      ],
      "stateMutability": "view"
    },
    {
      "type": "function",
      "name": "totalVotingPower",
      "inputs": [
        {
          "name": "_blockNumber",
          "type": "uint256",
          "internalType": "uint256"
        }
      ],
      "outputs": [
        {
          "name": "",
          "type": "uint256",
          "internalType": "uint256"
        }
      ],
      "stateMutability": "view"
    },
    {
      "type": "function",
      "name": "upgradeTo",
      "inputs": [
        {
          "name": "newAddress",
          "type": "address",
          "internalType": "address"
        }
      ],
      "outputs": [],
      "stateMutability": "pure"
    },
    {
      "type": "function",
      "name": "upgradeToAndCall",
      "inputs": [
        {
          "name": "newImplementation",
          "type": "address",
          "internalType": "address"
        },
        {
          "name": "data",
          "type": "bytes",
          "internalType": "bytes"
        }
      ],
      "outputs": [],
      "stateMutability": "payable"
    },
    {
      "type": "function",
      "name": "verifier",
      "inputs": [],
      "outputs": [
        {
          "name": "",
          "type": "address",
          "internalType": "address"
        }
      ],
      "stateMutability": "view"
    },
    {
      "type": "function",
      "name": "vkRegistry",
      "inputs": [],
      "outputs": [
        {
          "name": "",
          "type": "address",
          "internalType": "address"
        }
      ],
      "stateMutability": "view"
    },
    {
      "type": "function",
      "name": "voiceCreditProxyFactory",
      "inputs": [],
      "outputs": [
        {
          "name": "",
          "type": "address",
          "internalType": "contract IInitialVoiceCreditsProxyFactory"
        }
      ],
      "stateMutability": "view"
    },
    {
      "type": "function",
      "name": "votingSettings",
      "inputs": [],
      "outputs": [
        {
          "name": "minParticipation",
          "type": "uint32",
          "internalType": "uint32"
        },
        {
          "name": "minDuration",
          "type": "uint64",
          "internalType": "uint64"
        },
        {
          "name": "minProposerVotingPower",
          "type": "uint256",
          "internalType": "uint256"
        }
      ],
      "stateMutability": "view"
    },
    {
      "type": "event",
      "name": "AdminChanged",
      "inputs": [
        {
          "name": "previousAdmin",
          "type": "address",
          "indexed": false,
          "internalType": "address"
        },
        {
          "name": "newAdmin",
          "type": "address",
          "indexed": false,
          "internalType": "address"
        }
      ],
      "anonymous": false
    },
    {
      "type": "event",
      "name": "BeaconUpgraded",
      "inputs": [
        {
          "name": "beacon",
          "type": "address",
          "indexed": true,
          "internalType": "address"
        }
      ],
      "anonymous": false
    },
    {
      "type": "event",
      "name": "Initialized",
      "inputs": [
        {
          "name": "version",
          "type": "uint8",
          "indexed": false,
          "internalType": "uint8"
        }
      ],
      "anonymous": false
    },
    {
      "type": "event",
      "name": "ProposalCreated",
      "inputs": [
        {
          "name": "proposalId",
          "type": "uint256",
          "indexed": true,
          "internalType": "uint256"
        },
        {
          "name": "creator",
          "type": "address",
          "indexed": true,
          "internalType": "address"
        },
        {
          "name": "startDate",
          "type": "uint64",
          "indexed": false,
          "internalType": "uint64"
        },
        {
          "name": "endDate",
          "type": "uint64",
          "indexed": false,
          "internalType": "uint64"
        },
        {
          "name": "metadata",
          "type": "bytes",
          "indexed": false,
          "internalType": "bytes"
        },
        {
          "name": "actions",
          "type": "tuple[]",
          "indexed": false,
          "internalType": "struct IDAO.Action[]",
          "components": [
            {
              "name": "to",
              "type": "address",
              "internalType": "address"
            },
            {
              "name": "value",
              "type": "uint256",
              "internalType": "uint256"
            },
            {
              "name": "data",
              "type": "bytes",
              "internalType": "bytes"
            }
          ]
        },
        {
          "name": "allowFailureMap",
          "type": "uint256",
          "indexed": false,
          "internalType": "uint256"
        }
      ],
      "anonymous": false
    },
    {
      "type": "event",
      "name": "ProposalExecuted",
      "inputs": [
        {
          "name": "proposalId",
          "type": "uint256",
          "indexed": true,
          "internalType": "uint256"
        }
      ],
      "anonymous": false
    },
    {
      "type": "event",
      "name": "Upgraded",
      "inputs": [
        {
          "name": "implementation",
          "type": "address",
          "indexed": true,
          "internalType": "address"
        }
      ],
      "anonymous": false
    },
    {
      "type": "error",
      "name": "DaoUnauthorized",
      "inputs": [
        {
          "name": "dao",
          "type": "address",
          "internalType": "address"
        },
        {
          "name": "where",
          "type": "address",
          "internalType": "address"
        },
        {
          "name": "who",
          "type": "address",
          "internalType": "address"
        },
        {
          "name": "permissionId",
          "type": "bytes32",
          "internalType": "bytes32"
        }
      ]
    },
    {
      "type": "error",
      "name": "DateOutOfBounds",
      "inputs": [
        {
          "name": "limit",
          "type": "uint64",
          "internalType": "uint64"
        },
        {
          "name": "actual",
          "type": "uint64",
          "internalType": "uint64"
        }
      ]
    },
    {
      "type": "error",
      "name": "NoVotingPower",
      "inputs": []
    },
    {
      "type": "error",
      "name": "NonexistentProposal",
      "inputs": [
        {
          "name": "proposalId",
          "type": "uint256",
          "internalType": "uint256"
        }
      ]
    },
    {
      "type": "error",
      "name": "ProposalAlreadyExists",
      "inputs": [
        {
          "name": "proposalId",
          "type": "uint256",
          "internalType": "uint256"
        }
      ]
    },
    {
      "type": "error",
      "name": "ProposalCreationForbidden",
      "inputs": [
        {
          "name": "_address",
          "type": "address",
          "internalType": "address"
        }
      ]
    },
    {
      "type": "error",
      "name": "ProposalExecutionForbidden",
      "inputs": [
        {
          "name": "proposalId",
          "type": "uint256",
          "internalType": "uint256"
        }
      ]
    },
    {
      "type": "error",
      "name": "RatioOutOfBounds",
      "inputs": [
        {
          "name": "limit",
          "type": "uint256",
          "internalType": "uint256"
        },
        {
          "name": "actual",
          "type": "uint256",
          "internalType": "uint256"
        }
      ]
    }
  ],
  "bytecode": {
    "object": "0x60a06040523060805234801561001457600080fd5b5061001d61002a565b61002561002a565b6100ea565b600054610100900460ff16156100965760405162461bcd60e51b815260206004820152602760248201527f496e697469616c697a61626c653a20636f6e747261637420697320696e697469604482015266616c697a696e6760c81b606482015260840160405180910390fd5b60005460ff90811610156100e8576000805460ff191660ff9081179091556040519081527f7f26b83ff96e1f2b6a682f133852f6798a09c465da95921460cefb38474024989060200160405180910390a15b565b6080516137116101136000396000818161078301528181610819015261091401526137116000f3fe6080604052600436106101e35760003560e01c80634f1ef28611610102578063b068064611610095578063da35c66411610064578063da35c6641461060b578063e28c3b1914610620578063f60046b21461063f578063fe0d94c11461065557600080fd5b8063b068064614610565578063c218c13214610586578063c9c4bfca146105b7578063cc63604a146105eb57600080fd5b80636e4f7a50116100d15780636e4f7a50146104fb5780636e7fc2c31461051057806372c347ca14610530578063967e18ed1461055057600080fd5b80634f1ef2861461049e57806352d1902d146104b1578063536f9f42146104c65780635c60da1b146104e657600080fd5b80632b7ac3f31161017a5780633659cfe6116101495780633659cfe6146104205780633d3f4b1b146104425780634162169f1461046457806341de68301461048257600080fd5b80632b7ac3f3146103495780632ed5e02d1461036a57806331e766a5146103cd57806334a0922c146103ff57600080fd5b80630e749eca116101b65780630e749eca146102be57806313fb8932146102df578063143154f9146103005780632ae9c6001461032757600080fd5b806301ffc9a7146101e8578063054fd2c21461021d5780630729d054146102435780630a6c9c2d14610285575b600080fd5b3480156101f457600080fd5b50610208610203366004612759565b610675565b60405190151581526020015b60405180910390f35b34801561022957600080fd5b506101635460405163ffffffff9091168152602001610214565b34801561024f57600080fd5b506102777fbf04b4486c9663d805744005c3da000eda93de6e3308a4a7a812eb565327b78d81565b604051908152602001610214565b34801561029157600080fd5b50610168546102a6906001600160a01b031681565b6040516001600160a01b039091168152602001610214565b3480156102ca57600080fd5b50610167546102a6906001600160a01b031681565b3480156102eb57600080fd5b5061016a546102a6906001600160a01b031681565b34801561030c57600080fd5b50610315600281565b60405160ff9091168152602001610214565b34801561033357600080fd5b5061033c6106d1565b604051610214919061279b565b34801561035557600080fd5b50610169546102a6906001600160a01b031681565b34801561037657600080fd5b5061016354610164546103a29163ffffffff81169164010000000090910467ffffffffffffffff169083565b6040805163ffffffff909416845267ffffffffffffffff909216602084015290820152606001610214565b3480156103d957600080fd5b5061016154610162546103ea919082565b60408051928352602083019190915201610214565b34801561040b57600080fd5b50610160546102a6906001600160a01b031681565b34801561042c57600080fd5b5061044061043b3660046127f4565b6106fb565b005b34801561044e57600080fd5b50610457610759565b6040516102149190612861565b34801561047057600080fd5b5060c9546001600160a01b03166102a6565b34801561048e57600080fd5b50600060405161021491906128a3565b6104406104ac366004612945565b610779565b3480156104bd57600080fd5b50610277610907565b3480156104d257600080fd5b506102776104e13660046129d8565b6109cd565b3480156104f257600080fd5b506102a6610a55565b34801561050757600080fd5b50610315600a81565b34801561051c57600080fd5b5061027761052b366004612a5e565b610a8d565b34801561053c57600080fd5b5061044061054b366004612b2c565b610ebc565b34801561055c57600080fd5b50610315600181565b34801561057157600080fd5b50610166546102a6906001600160a01b031681565b34801561059257600080fd5b506102086105a13660046129d8565b6000908152610165602052604090205460ff1690565b3480156105c357600080fd5b506102777f821b6e3a557148015a918c89e5d092e878a69854a2d1a410635f771bd5a8a3f581565b3480156105f757600080fd5b506102086106063660046129d8565b611163565b34801561061757600080fd5b506102776111d6565b34801561062c57600080fd5b5061015f546001600160a01b03166102a6565b34801561064b57600080fd5b5061016454610277565b34801561066157600080fd5b506104406106703660046129d8565b6111e2565b60007fffffffff0000000000000000000000000000000000000000000000000000000082167f904f7cd30000000000000000000000000000000000000000000000000000000014806106cb57506106cb826113f8565b92915050565b6106d961273b565b5060408051606081018252600181526004602082015260009181019190915290565b6001600160a01b0381166107565760405162461bcd60e51b815260206004820152600b60248201527f4e6f7420616c6c6f77656400000000000000000000000000000000000000000060448201526064015b60405180910390fd5b50565b60606040518060800160405280604381526020016136a760439139905090565b6001600160a01b037f00000000000000000000000000000000000000000000000000000000000000001630036108175760405162461bcd60e51b815260206004820152602c60248201527f46756e6374696f6e206d7573742062652063616c6c6564207468726f7567682060448201527f64656c656761746563616c6c0000000000000000000000000000000000000000606482015260840161074d565b7f00000000000000000000000000000000000000000000000000000000000000006001600160a01b03166108727f360894a13ba1a3210667c828492db98dca3e2076cc3735a920a3ca505d382bbc546001600160a01b031690565b6001600160a01b0316146108ee5760405162461bcd60e51b815260206004820152602c60248201527f46756e6374696f6e206d7573742062652063616c6c6564207468726f7567682060448201527f6163746976652070726f78790000000000000000000000000000000000000000606482015260840161074d565b6108f78261144e565b61090382826001611487565b5050565b6000306001600160a01b037f000000000000000000000000000000000000000000000000000000000000000016146109a75760405162461bcd60e51b815260206004820152603860248201527f555550535570677261646561626c653a206d757374206e6f742062652063616c60448201527f6c6564207468726f7567682064656c656761746563616c6c0000000000000000606482015260840161074d565b507f360894a13ba1a3210667c828492db98dca3e2076cc3735a920a3ca505d382bbc5b90565b61015f546040517f8e539e8c000000000000000000000000000000000000000000000000000000008152600481018390526000916001600160a01b031690638e539e8c90602401602060405180830381865afa158015610a31573d6000803e3d6000fd5b505050506040513d601f19601f820116820180604052508101906106cb9190612c3f565b6000610a887f360894a13ba1a3210667c828492db98dca3e2076cc3735a920a3ca505d382bbc546001600160a01b031690565b905090565b600080610a9a6101645490565b90508015610c0f5761015f5481906001600160a01b0316639ab24eb0336040517fffffffff0000000000000000000000000000000000000000000000000000000060e084901b1681526001600160a01b039091166004820152602401602060405180830381865afa158015610b13573d6000803e3d6000fd5b505050506040513d601f19601f82011682018060405250810190610b379190612c3f565b108015610bd6575061015f5481906001600160a01b0316639ab24eb0336040517fffffffff0000000000000000000000000000000000000000000000000000000060e084901b1681526001600160a01b039091166004820152602401602060405180830381865afa158015610bb0573d6000803e3d6000fd5b505050506040513d601f19601f82011682018060405250810190610bd49190612c3f565b105b15610c0f576040517feab9934400000000000000000000000000000000000000000000000000000000815233600482015260240161074d565b507fffffffffffffffffffffffffffffffffffffffffffffffffffffffffffffffff43016000610c3e826109cd565b905080600003610c7a576040517f7c176b7400000000000000000000000000000000000000000000000000000000815260040160405180910390fd5b610c84858561162c565b9095509350610c91611768565b60008181526101656020526040902060010154909350700100000000000000000000000000000000900467ffffffffffffffff1615610cff576040517f12dba68f0000000000000000000000000000000000000000000000000000000081526004810184905260240161074d565b60008381526101656020526040902060018101805467ffffffffffffffff87811668010000000000000000027fffffffffffffffffffffffffffffffff0000000000000000000000000000000090921690891617179055610d5f83611783565b60018201805467ffffffffffffffff92909216700100000000000000000000000000000000027fffffffffffffffff0000000000000000ffffffffffffffffffffffffffffffff909216919091179055610dce82610dc36101635463ffffffff1690565b63ffffffff16611807565b600282018190556000908190610de79089908990611897565b6005850182905580516006860180547fffffffffffffffffffffffff0000000000000000000000000000000000000000166001600160a01b0390921691909117905590925090508815610e3c57600483018990555b60005b8a811015610e9b57836003018c8c83818110610e5d57610e5d612c58565b9050602002810190610e6f9190612c87565b815460018101835560009283526020909220909160030201610e918282612d66565b5050600101610e3f565b50610eac8d8d8d8d8d8b8e8e611d2f565b5050505050979650505050505050565b600054610100900460ff1615808015610edc5750600054600160ff909116105b80610ef65750303b158015610ef6575060005460ff166001145b610f685760405162461bcd60e51b815260206004820152602e60248201527f496e697469616c697a61626c653a20636f6e747261637420697320616c72656160448201527f647920696e697469616c697a6564000000000000000000000000000000000000606482015260840161074d565b600080547fffffffffffffffffffffffffffffffffffffffffffffffffffffffffffffff001660011790558015610fc657600080547fffffffffffffffffffffffffffffffffffffffffffffffffffffffffffff00ff166101001790555b610fcf8b611d87565b61015f80546001600160a01b038981167fffffffffffffffffffffffff0000000000000000000000000000000000000000928316179092556101608054928d1692909116919091179055883561016155602089013561016255876101636110368282612f15565b505061016980547fffffffffffffffffffffffff00000000000000000000000000000000000000009081166001600160a01b038981169190911790925561016a8054821688841617905561016680548216878416179055610167805482168684161790556101688054909116918416919091179055604080516060810182526002815260016020820152600a91015261016b80547fffffffffffffffffffffffffffffffffffffffffffffffffffffffffff00000016620a0102179055801561115657600080547fffffffffffffffffffffffffffffffffffffffffffffffffffffffffffff00ff169055604051600181527f7f26b83ff96e1f2b6a682f133852f6798a09c465da95921460cefb38474024989060200160405180910390a15b5050505050505050505050565b60008181526101656020526040812060010154700100000000000000000000000000000000900467ffffffffffffffff166111cd576040517f853c2a300000000000000000000000000000000000000000000000000000000081526004810183905260240161074d565b6106cb82611e0d565b6000610a8861012d5490565b60c9547fbf04b4486c9663d805744005c3da000eda93de6e3308a4a7a812eb565327b78d90611220906001600160a01b031630335b8460003661210c565b61122982611e0d565b611262576040517f9fefd0f10000000000000000000000000000000000000000000000000000000081526004810183905260240161074d565b60008281526101656020526040902080547fffffffffffffffffffffffffffffffffffffffffffffffffffffffffffffff001660011781556113c66112af60c9546001600160a01b031690565b8483600301805480602002602001604051908101604052809291908181526020016000905b828210156113b8576000848152602090819020604080516060810182526003860290920180546001600160a01b031683526001810154938301939093526002830180549293929184019161132790612cc5565b80601f016020809104026020016040519081016040528092919081815260200182805461135390612cc5565b80156113a05780601f10611375576101008083540402835291602001916113a0565b820191906000526020600020905b81548152906001019060200180831161138357829003601f168201915b505050505081525050815260200190600101906112d4565b5050505084600401546121fa565b505060405183907f712ae1383f79ac853f8d882153778e0260ef8f03b504e2866e0593e04d2b291f90600090a2505050565b60007fffffffff0000000000000000000000000000000000000000000000000000000082167fda35c6640000000000000000000000000000000000000000000000000000000014806106cb57506106cb826122c9565b60c9547f821b6e3a557148015a918c89e5d092e878a69854a2d1a410635f771bd5a8a3f590610903906001600160a01b03163033611217565b7f4910fdfa16fed3260ed0e7147f7cc6da11a60208b5b9406d12a635614ffd91435460ff16156114bf576114ba836123f8565b505050565b826001600160a01b03166352d1902d6040518163ffffffff1660e01b8152600401602060405180830381865afa925050508015611519575060408051601f3d908101601f1916820190925261151691810190612c3f565b60015b61158b5760405162461bcd60e51b815260206004820152602e60248201527f45524331393637557067726164653a206e657720696d706c656d656e7461746960448201527f6f6e206973206e6f742055555053000000000000000000000000000000000000606482015260840161074d565b7f360894a13ba1a3210667c828492db98dca3e2076cc3735a920a3ca505d382bbc81146116205760405162461bcd60e51b815260206004820152602960248201527f45524331393637557067726164653a20756e737570706f727465642070726f7860448201527f6961626c65555549440000000000000000000000000000000000000000000000606482015260840161074d565b506114ba8383836124ce565b600080600061163a42611783565b90508467ffffffffffffffff16600003611656578092506116bb565b8492508067ffffffffffffffff168367ffffffffffffffff1610156116bb576040517f4cc9c0f400000000000000000000000000000000000000000000000000000000815267ffffffffffffffff80831660048301528416602482015260440161074d565b610163546000906116de90640100000000900467ffffffffffffffff1685612fde565b90508467ffffffffffffffff166000036116fa5780925061175f565b8492508067ffffffffffffffff168367ffffffffffffffff16101561175f576040517f4cc9c0f400000000000000000000000000000000000000000000000000000000815267ffffffffffffffff80831660048301528416602482015260440161074d565b50509250929050565b60006117726111d6565b90506109ca61012d80546001019055565b600067ffffffffffffffff8211156118035760405162461bcd60e51b815260206004820152602660248201527f53616665436173743a2076616c756520646f65736e27742066697420696e203660448201527f3420626974730000000000000000000000000000000000000000000000000000606482015260840161074d565b5090565b6000620f4240821115611852576040517fcc80c195000000000000000000000000000000000000000000000000000000008152620f424060048201526024810183905260440161074d565b61185c8284612ffe565b9250600061186d620f424085613044565b905061187c620f424085613058565b915080156118905761188d8261306c565b91505b5092915050565b604080516060810182526000808252602080830182905282840182905283516001808252818601909552919384929182810190803683370190505090506000816000815181106118e9576118e9612c58565b6001600160a01b0392831660209182029290920101526101675461015f546040517fcfda5478000000000000000000000000000000000000000000000000000000008152908316600482015243602482015260448101879052600092919091169063cfda5478906064016020604051808303816000875af1158015611972573d6000803e3d6000fd5b505050506040513d601f19601f8201168201806040525081019061199691906130a4565b610166546040517f4c96a3890000000000000000000000000000000000000000000000000000000081526001600160a01b03808416600483015292935060009290911690634c96a389906024016020604051808303816000875af1158015611a02573d6000803e3d6000fd5b505050506040513d601f19601f82011682018060405250810190611a2691906130a4565b6101685461015f546040517f6f24caaa0000000000000000000000000000000000000000000000000000000081524360048201526001600160a01b03918216602482015267016345785d8a00006044820152929350600092911690636f24caaa906064016020604051808303816000875af1158015611aa9573d6000803e3d6000fd5b505050506040513d601f19601f82011682018060405250810190611acd91906130a4565b604080516101808101825267ffffffffffffffff8c811682528b1660208083019190915282516060808201855261016b5460ff8082168452610100808304821685870152620100009092041683870152848601929092526014908401528351808501855261016154815261016254818401526080840152610169546001600160a01b0390811660a085015261016a54811660c0850152600160e08501528781169184019190915284811661012084015261014083018990526003610160808501919091525484517f2b786571000000000000000000000000000000000000000000000000000000008152945195965092946000949390911692632b7865719260048083019391928290030181865afa158015611bed573d6000803e3d6000fd5b505050506040513d601f19601f82011682018060405250810190611c119190612c3f565b610160546040517f7d9f541c0000000000000000000000000000000000000000000000000000000081529192506000916001600160a01b0390911690637d9f541c90611c6190869060040161311a565b6060604051808303816000875af1158015611c80573d6000803e3d6000fd5b505050506040513d601f19601f82011682018060405250810190611ca49190613224565b80516040517f776d1a010000000000000000000000000000000000000000000000000000000081526001600160a01b03918216600482015291925086169063776d1a0190602401600060405180830381600087803b158015611d0557600080fd5b505af1158015611d19573d6000803e3d6000fd5b50939e929d50919b505050505050505050505050565b336001600160a01b0316837fa6c1f8f4276dc3f243459e13b557c84e8f4e90b2e09070bad5f6909cee687c9284848c8c8c8c8c604051611d7597969594939291906132c3565b60405180910390a35050505050505050565b600054610100900460ff16611e045760405162461bcd60e51b815260206004820152602b60248201527f496e697469616c697a61626c653a20636f6e7472616374206973206e6f74206960448201527f6e697469616c697a696e67000000000000000000000000000000000000000000606482015260840161074d565b610756816124f9565b6000818152610165602052604080822061016054600582015492517f1a8cbcaa0000000000000000000000000000000000000000000000000000000081526004810193909352909183916001600160a01b031690631a8cbcaa90602401606060405180830381865afa158015611e87573d6000803e3d6000fd5b505050506040513d601f19601f82011682018060405250810190611eab9190613224565b604081015183549192509060ff1615611ec957506000949350505050565b806001600160a01b031663e3ff76066040518163ffffffff1660e01b8152600401602060405180830381865afa158015611f07573d6000803e3d6000fd5b505050506040513d601f19601f82011682018060405250810190611f2b9190613438565b611f3a57506000949350505050565b806001600160a01b031663fb346eab6040518163ffffffff1660e01b8152600401602060405180830381865afa158015611f78573d6000803e3d6000fd5b505050506040513d601f19601f82011682018060405250810190611f9c9190612c3f565b60028401541015611fb257506000949350505050565b6040517f93ec604f0000000000000000000000000000000000000000000000000000000081526000600482018190529081906001600160a01b038416906393ec604f906024016040805180830381865afa158015612014573d6000803e3d6000fd5b505050506040513d601f19601f820116820180604052508101906120389190613453565b6040517f93ec604f00000000000000000000000000000000000000000000000000000000815260016004820152919350915060009081906001600160a01b038616906393ec604f906024016040805180830381865afa15801561209f573d6000803e3d6000fd5b505050506040513d601f19601f820116820180604052508101906120c39190613453565b915091508215806120d2575080155b156120e65750600098975050505050505050565b838210156120fd5750600098975050505050505050565b50600198975050505050505050565b6040517ffdef91060000000000000000000000000000000000000000000000000000000081526001600160a01b0387169063fdef910690612159908890889088908890889060040161347f565b602060405180830381865afa158015612176573d6000803e3d6000fd5b505050506040513d601f19601f8201168201806040525081019061219a9190613438565b6121f2576040517f32dbe3b40000000000000000000000000000000000000000000000000000000081526001600160a01b0380881660048301528087166024830152851660448201526064810184905260840161074d565b505050505050565b6040517fc71bf3240000000000000000000000000000000000000000000000000000000081526060906000906001600160a01b0387169063c71bf32490612249908890889088906004016134c2565b6000604051808303816000875af1158015612268573d6000803e3d6000fd5b505050506040513d6000823e601f3d908101601f19168201604052612290919081019061357e565b604051919350915085907f712ae1383f79ac853f8d882153778e0260ef8f03b504e2866e0593e04d2b291f90600090a294509492505050565b60007fffffffff0000000000000000000000000000000000000000000000000000000082167f41de683000000000000000000000000000000000000000000000000000000000148061235c57507fffffffff0000000000000000000000000000000000000000000000000000000082167f2ae9c60000000000000000000000000000000000000000000000000000000000145b806123a857507fffffffff0000000000000000000000000000000000000000000000000000000082167f52d1902d00000000000000000000000000000000000000000000000000000000145b806106cb57507f01ffc9a7000000000000000000000000000000000000000000000000000000007fffffffff000000000000000000000000000000000000000000000000000000008316146106cb565b6001600160a01b0381163b6124755760405162461bcd60e51b815260206004820152602d60248201527f455243313936373a206e657720696d706c656d656e746174696f6e206973206e60448201527f6f74206120636f6e747261637400000000000000000000000000000000000000606482015260840161074d565b7f360894a13ba1a3210667c828492db98dca3e2076cc3735a920a3ca505d382bbc80547fffffffffffffffffffffffff0000000000000000000000000000000000000000166001600160a01b0392909216919091179055565b6124d7836125b0565b6000825111806124e45750805b156114ba576124f383836125f0565b50505050565b600054610100900460ff166125765760405162461bcd60e51b815260206004820152602b60248201527f496e697469616c697a61626c653a20636f6e7472616374206973206e6f74206960448201527f6e697469616c697a696e67000000000000000000000000000000000000000000606482015260840161074d565b60c980547fffffffffffffffffffffffff0000000000000000000000000000000000000000166001600160a01b0392909216919091179055565b6125b9816123f8565b6040516001600160a01b038216907fbc7cd75a20ee27fd9adebab32041f755214dbc6bffa90cc0225b39da2e5c2d3b90600090a250565b60606001600160a01b0383163b61266f5760405162461bcd60e51b815260206004820152602660248201527f416464726573733a2064656c65676174652063616c6c20746f206e6f6e2d636f60448201527f6e74726163740000000000000000000000000000000000000000000000000000606482015260840161074d565b600080846001600160a01b03168460405161268a9190613694565b600060405180830381855af49150503d80600081146126c5576040519150601f19603f3d011682016040523d82523d6000602084013e6126ca565b606091505b50915091506126f282826040518060600160405280602781526020016136ea602791396126fb565b95945050505050565b6060831561270a575081612734565b82511561271a5782518084602001fd5b8160405162461bcd60e51b815260040161074d9190612861565b9392505050565b60405180606001604052806003906020820280368337509192915050565b60006020828403121561276b57600080fd5b81357fffffffff000000000000000000000000000000000000000000000000000000008116811461273457600080fd5b60608101818360005b60038110156127c657815160ff168352602092830192909101906001016127a4565b50505092915050565b6001600160a01b038116811461075657600080fd5b80356127ef816127cf565b919050565b60006020828403121561280657600080fd5b8135612734816127cf565b60005b8381101561282c578181015183820152602001612814565b50506000910152565b6000815180845261284d816020860160208601612811565b601f01601f19169290920160200192915050565b6020815260006127346020830184612835565b7f4e487b7100000000000000000000000000000000000000000000000000000000600052602160045260246000fd5b60208101600383106128b7576128b7612874565b91905290565b7f4e487b7100000000000000000000000000000000000000000000000000000000600052604160045260246000fd5b604051601f8201601f1916810167ffffffffffffffff81118282101715612915576129156128bd565b604052919050565b600067ffffffffffffffff821115612937576129376128bd565b50601f01601f191660200190565b6000806040838503121561295857600080fd5b8235612963816127cf565b9150602083013567ffffffffffffffff81111561297f57600080fd5b8301601f8101851361299057600080fd5b80356129a361299e8261291d565b6128ec565b8181528660208385010111156129b857600080fd5b816020840160208301376000602083830101528093505050509250929050565b6000602082840312156129ea57600080fd5b5035919050565b60008083601f840112612a0357600080fd5b50813567ffffffffffffffff811115612a1b57600080fd5b6020830191508360208260051b8501011115612a3657600080fd5b9250929050565b67ffffffffffffffff8116811461075657600080fd5b80356127ef81612a3d565b600080600080600080600060a0888a031215612a7957600080fd5b873567ffffffffffffffff811115612a9057600080fd5b8801601f81018a13612aa157600080fd5b803567ffffffffffffffff811115612ab857600080fd5b8a6020828401011115612aca57600080fd5b60209182019850965088013567ffffffffffffffff811115612aeb57600080fd5b612af78a828b016129f1565b90965094505060408801359250612b1060608901612a53565b9150612b1e60808901612a53565b905092959891949750929550565b6000806000806000806000806000808a8c036101a0811215612b4d57600080fd5b8b35612b58816127cf565b9a5060208c0135612b68816127cf565b995060407fffffffffffffffffffffffffffffffffffffffffffffffffffffffffffffffc082011215612b9a57600080fd5b60408c01985060607fffffffffffffffffffffffffffffffffffffffffffffffffffffffffffffff8082011215612bd057600080fd5b5060808b019650612be360e08c016127e4565b9550612bf26101008c016127e4565b9450612c016101208c016127e4565b9350612c106101408c016127e4565b9250612c1f6101608c016127e4565b9150612c2e6101808c016127e4565b90509295989b9194979a5092959850565b600060208284031215612c5157600080fd5b5051919050565b7f4e487b7100000000000000000000000000000000000000000000000000000000600052603260045260246000fd5b600082357fffffffffffffffffffffffffffffffffffffffffffffffffffffffffffffffa1833603018112612cbb57600080fd5b9190910192915050565b600181811c90821680612cd957607f821691505b602082108103612d12577f4e487b7100000000000000000000000000000000000000000000000000000000600052602260045260246000fd5b50919050565b601f8211156114ba57806000526020600020601f840160051c81016020851015612d3f5750805b601f840160051c820191505b81811015612d5f5760008155600101612d4b565b5050505050565b8135612d71816127cf565b81547fffffffffffffffffffffffff0000000000000000000000000000000000000000166001600160a01b0391909116178155602082013560018201556040820135368390037fffffffffffffffffffffffffffffffffffffffffffffffffffffffffffffffe1018112612de457600080fd5b8201803567ffffffffffffffff811115612dfd57600080fd5b602082019150803603821315612e1257600080fd5b6002830167ffffffffffffffff821115612e2e57612e2e6128bd565b612e4282612e3c8354612cc5565b83612d18565b6000601f831160018114612e945760008415612e5e5750848201355b7fffffffffffffffffffffffffffffffffffffffffffffffffffffffffffffffff600386901b1c1916600185901b178355612f0c565b600083815260209020601f19851690835b82811015612ec55787850135825560209485019460019092019101612ea5565b5085821015612f00577fffffffffffffffffffffffffffffffffffffffffffffffffffffffffffffffff60f88760031b161c19848801351681555b505060018460011b0183555b50505050505050565b813563ffffffff8116808214612f2a57600080fd5b82549150807fffffffffffffffffffffffffffffffffffffffffffffffffffffffff0000000083161783556020840135612f6381612a3d565b7fffffffffffffffffffffffffffffffffffffffff000000000000000000000000929092161760209190911b6bffffffffffffffff000000001617815560409190910135600190910155565b7f4e487b7100000000000000000000000000000000000000000000000000000000600052601160045260246000fd5b67ffffffffffffffff81811683821601908111156106cb576106cb612faf565b80820281158282048414176106cb576106cb612faf565b7f4e487b7100000000000000000000000000000000000000000000000000000000600052601260045260246000fd5b60008261305357613053613015565b500690565b60008261306757613067613015565b500490565b60007fffffffffffffffffffffffffffffffffffffffffffffffffffffffffffffffff820361309d5761309d612faf565b5060010190565b6000602082840312156130b657600080fd5b8151612734816127cf565b600281106130d1576130d1612874565b9052565b600081518084526020840193506020830160005b828110156131105781516001600160a01b03168652602095860195909101906001016130e9565b5093949350505050565b60208152815160208201526020820151604082015260006040830151613163606084018260ff815116825260ff602082015116602083015260ff60408201511660408301525050565b50606083015160ff811660c0840152506080830151805160e084015260208101516101008401525060a08301516001600160a01b0381166101208401525060c08301516001600160a01b0381166101408401525060e08301516131ca6101608401826130c1565b506101008301516001600160a01b03908116610180840152610120840151166101a08301526101408301516101e06101c084015261320c6102008401826130d5565b90506101608401516101e08401528091505092915050565b6000606082840312801561323757600080fd5b506040516060810167ffffffffffffffff8111828210171561325b5761325b6128bd565b6040528251613269816127cf565b81526020830151613279816127cf565b6020820152604083015161328c816127cf565b60408201529392505050565b818352818160208501375060006020828401015260006020601f19601f840116840101905092915050565b67ffffffffffffffff8816815267ffffffffffffffff8716602082015260a0604082015260006132f760a083018789613298565b82810360608401528085825260208201905060208660051b8301018760007fffffffffffffffffffffffffffffffffffffffffffffffffffffffffffffffa18a3603015b8982101561340d57601f19868503018552823581811261335a57600080fd5b8b018035613367816127cf565b6001600160a01b03168552602081810135908601526040810135368290037fffffffffffffffffffffffffffffffffffffffffffffffffffffffffffffffe10181126133b257600080fd5b0160208101903567ffffffffffffffff8111156133ce57600080fd5b8036038213156133dd57600080fd5b606060408701526133f2606087018284613298565b9550505060208301925060208501945060018201915061333b565b50505080935050505082608083015298975050505050505050565b805180151581146127ef57600080fd5b60006020828403121561344a57600080fd5b61273482613428565b6000806040838503121561346657600080fd5b8251915061347660208401613428565b90509250929050565b6001600160a01b03861681526001600160a01b03851660208201528360408201526080606082015260006134b7608083018486613298565b979650505050505050565b6000606082018583526060602084015280855180835260808501915060808160051b86010192506020870160005b82811015613569577fffffffffffffffffffffffffffffffffffffffffffffffffffffffffffffff8087860301845281516001600160a01b0381511686526020810151602087015260408101519050606060408701526135536060870182612835565b95505060209384019391909101906001016134f0565b50505050604092909201929092529392505050565b6000806040838503121561359157600080fd5b825167ffffffffffffffff8111156135a857600080fd5b8301601f810185136135b957600080fd5b805167ffffffffffffffff8111156135d3576135d36128bd565b8060051b6135e3602082016128ec565b918252602081840181019290810190888411156135ff57600080fd5b6020850192505b8383101561368057825167ffffffffffffffff81111561362557600080fd5b8501603f81018a1361363657600080fd5b602081015161364761299e8261291d565b8181526040838301018c101561365c57600080fd5b61366d826020830160408601612811565b8452505060209283019290910190613606565b602097909701519698969750505050505050565b60008251612cbb81846020870161281156fe2875696e7432353620616c6c6f774661696c7572654d61702c2075696e743820766f74654f7074696f6e2c20626f6f6c207472794561726c79457865637574696f6e29416464726573733a206c6f772d6c6576656c2064656c65676174652063616c6c206661696c6564",
    "linkReferences": {}
  },
  "methodIdentifiers": {
    "EXECUTE_PERMISSION_ID()": "0729d054",
    "INT_STATE_TREE_DEPTH()": "143154f9",
    "STATE_TREE_DEPTH()": "6e4f7a50",
    "UPGRADE_PLUGIN_PERMISSION_ID()": "c9c4bfca",
    "VOTE_OPTION_TREE_DEPTH()": "967e18ed",
    "canExecute(uint256)": "cc63604a",
    "checkerFactory()": "0e749eca",
    "coordinatorPubKey()": "31e766a5",
    "createProposal(bytes,(address,uint256,bytes)[],uint256,uint64,uint64)": "6e7fc2c3",
    "customProposalParamsABI()": "3d3f4b1b",
    "dao()": "4162169f",
    "execute(uint256)": "fe0d94c1",
    "getVotingToken()": "e28c3b19",
    "hasSucceeded(uint256)": "c218c132",
    "implementation()": "5c60da1b",
    "initialize(address,address,(uint256,uint256),(uint32,uint64,uint256),address,address,address,address,address,address)": "72c347ca",
    "maci()": "34a0922c",
    "minParticipation()": "054fd2c2",
    "minProposerVotingPower()": "f60046b2",
    "pluginType()": "41de6830",
    "policyFactory()": "b0680646",
    "proposalCount()": "da35c664",
    "protocolVersion()": "2ae9c600",
    "proxiableUUID()": "52d1902d",
    "supportsInterface(bytes4)": "01ffc9a7",
    "totalVotingPower(uint256)": "536f9f42",
    "upgradeTo(address)": "3659cfe6",
    "upgradeToAndCall(address,bytes)": "4f1ef286",
    "verifier()": "2b7ac3f3",
    "vkRegistry()": "13fb8932",
    "voiceCreditProxyFactory()": "0a6c9c2d",
    "votingSettings()": "2ed5e02d"
  },
  "id": 143
}