{
  "abi": [
    {
      "type": "constructor",
      "inputs": [],
      "stateMutability": "nonpayable"
    },
    {
      "type": "function",
      "name": "EXECUTE_PERMISSION_ID",
      "inputs": [],
      "outputs": [
        {
          "name": "",
          "type": "bytes32",
          "internalType": "bytes32"
        }
      ],
      "stateMutability": "view"
    },
    {
      "type": "function",
      "name": "INT_STATE_TREE_DEPTH",
      "inputs": [],
      "outputs": [
        {
          "name": "",
          "type": "uint8",
          "internalType": "uint8"
        }
      ],
      "stateMutability": "view"
    },
    {
      "type": "function",
      "name": "STATE_TREE_DEPTH",
      "inputs": [],
      "outputs": [
        {
          "name": "",
          "type": "uint8",
          "internalType": "uint8"
        }
      ],
      "stateMutability": "view"
    },
    {
      "type": "function",
      "name": "UPGRADE_PLUGIN_PERMISSION_ID",
      "inputs": [],
      "outputs": [
        {
          "name": "",
          "type": "bytes32",
          "internalType": "bytes32"
        }
      ],
      "stateMutability": "view"
    },
    {
      "type": "function",
      "name": "VOTE_OPTION_TREE_DEPTH",
      "inputs": [],
      "outputs": [
        {
          "name": "",
          "type": "uint8",
          "internalType": "uint8"
        }
      ],
      "stateMutability": "view"
    },
    {
      "type": "function",
      "name": "canExecute",
      "inputs": [
        {
          "name": "_proposalId",
          "type": "uint256",
          "internalType": "uint256"
        }
      ],
      "outputs": [
        {
          "name": "",
          "type": "bool",
          "internalType": "bool"
        }
      ],
      "stateMutability": "view"
    },
    {
      "type": "function",
      "name": "checkerFactory",
      "inputs": [],
      "outputs": [
        {
          "name": "",
          "type": "address",
          "internalType": "contract IERC20VotesCheckerFactory"
        }
      ],
      "stateMutability": "view"
    },
    {
      "type": "function",
      "name": "coordinatorPubKey",
      "inputs": [],
      "outputs": [
        {
          "name": "x",
          "type": "uint256",
          "internalType": "uint256"
        },
        {
          "name": "y",
          "type": "uint256",
          "internalType": "uint256"
        }
      ],
      "stateMutability": "view"
    },
    {
      "type": "function",
      "name": "createProposal",
      "inputs": [
        {
          "name": "_metadata",
          "type": "bytes",
          "internalType": "bytes"
        },
        {
          "name": "_actions",
          "type": "tuple[]",
          "internalType": "struct IDAO.Action[]",
          "components": [
            {
              "name": "to",
              "type": "address",
              "internalType": "address"
            },
            {
              "name": "value",
              "type": "uint256",
              "internalType": "uint256"
            },
            {
              "name": "data",
              "type": "bytes",
              "internalType": "bytes"
            }
          ]
        },
        {
          "name": "_allowFailureMap",
          "type": "uint256",
          "internalType": "uint256"
        },
        {
          "name": "_startDate",
          "type": "uint64",
          "internalType": "uint64"
        },
        {
          "name": "_endDate",
          "type": "uint64",
          "internalType": "uint64"
        }
      ],
      "outputs": [
        {
          "name": "proposalId",
          "type": "uint256",
          "internalType": "uint256"
        }
      ],
      "stateMutability": "nonpayable"
    },
    {
      "type": "function",
      "name": "customProposalParamsABI",
      "inputs": [],
      "outputs": [
        {
          "name": "",
          "type": "string",
          "internalType": "string"
        }
      ],
      "stateMutability": "pure"
    },
    {
      "type": "function",
      "name": "dao",
      "inputs": [],
      "outputs": [
        {
          "name": "",
          "type": "address",
          "internalType": "contract IDAO"
        }
      ],
      "stateMutability": "view"
    },
    {
      "type": "function",
      "name": "execute",
      "inputs": [
        {
          "name": "_proposalId",
          "type": "uint256",
          "internalType": "uint256"
        }
      ],
      "outputs": [],
      "stateMutability": "nonpayable"
    },
    {
      "type": "function",
      "name": "getProposal",
      "inputs": [
        {
          "name": "_proposalId",
          "type": "uint256",
          "internalType": "uint256"
        }
      ],
      "outputs": [
        {
          "name": "proposal_",
          "type": "tuple",
          "internalType": "struct MaciVoting.Proposal",
          "components": [
            {
              "name": "active",
              "type": "bool",
              "internalType": "bool"
            },
            {
              "name": "executed",
              "type": "bool",
              "internalType": "bool"
            },
            {
              "name": "parameters",
              "type": "tuple",
              "internalType": "struct MaciVoting.ProposalParameters",
              "components": [
                {
                  "name": "startDate",
                  "type": "uint64",
                  "internalType": "uint64"
                },
                {
                  "name": "endDate",
                  "type": "uint64",
                  "internalType": "uint64"
                },
                {
                  "name": "snapshotBlock",
                  "type": "uint64",
                  "internalType": "uint64"
                },
                {
                  "name": "minVotingPower",
                  "type": "uint256",
                  "internalType": "uint256"
                }
              ]
            },
            {
              "name": "actions",
              "type": "tuple[]",
              "internalType": "struct IDAO.Action[]",
              "components": [
                {
                  "name": "to",
                  "type": "address",
                  "internalType": "address"
                },
                {
                  "name": "value",
                  "type": "uint256",
                  "internalType": "uint256"
                },
                {
                  "name": "data",
                  "type": "bytes",
                  "internalType": "bytes"
                }
              ]
            },
            {
              "name": "allowFailureMap",
              "type": "uint256",
              "internalType": "uint256"
            },
            {
              "name": "pollId",
              "type": "uint256",
              "internalType": "uint256"
            },
            {
              "name": "pollAddress",
              "type": "address",
              "internalType": "address"
            }
          ]
        }
      ],
      "stateMutability": "view"
    },
    {
      "type": "function",
      "name": "getVotingToken",
      "inputs": [],
      "outputs": [
        {
          "name": "",
          "type": "address",
          "internalType": "contract IVotesUpgradeable"
        }
      ],
      "stateMutability": "view"
    },
    {
      "type": "function",
      "name": "hasSucceeded",
      "inputs": [
        {
          "name": "_proposalId",
          "type": "uint256",
          "internalType": "uint256"
        }
      ],
      "outputs": [
        {
          "name": "",
          "type": "bool",
          "internalType": "bool"
        }
      ],
      "stateMutability": "view"
    },
    {
      "type": "function",
      "name": "implementation",
      "inputs": [],
      "outputs": [
        {
          "name": "",
          "type": "address",
          "internalType": "address"
        }
      ],
      "stateMutability": "view"
    },
    {
      "type": "function",
      "name": "initialize",
      "inputs": [
        {
          "name": "_dao",
          "type": "address",
          "internalType": "contract IDAO"
        },
        {
          "name": "_maci",
          "type": "address",
          "internalType": "address"
        },
        {
          "name": "_coordinatorPubKey",
          "type": "tuple",
          "internalType": "struct DomainObjs.PublicKey",
          "components": [
            {
              "name": "x",
              "type": "uint256",
              "internalType": "uint256"
            },
            {
              "name": "y",
              "type": "uint256",
              "internalType": "uint256"
            }
          ]
        },
        {
          "name": "_votingSettings",
          "type": "tuple",
          "internalType": "struct IMaciVoting.VotingSettings",
          "components": [
            {
              "name": "minParticipation",
              "type": "uint32",
              "internalType": "uint32"
            },
            {
              "name": "minDuration",
              "type": "uint64",
              "internalType": "uint64"
            },
            {
              "name": "minProposerVotingPower",
              "type": "uint256",
              "internalType": "uint256"
            }
          ]
        },
        {
          "name": "_token",
          "type": "address",
          "internalType": "contract IVotesUpgradeable"
        },
        {
          "name": "_verifier",
          "type": "address",
          "internalType": "address"
        },
        {
          "name": "_vkRegistry",
          "type": "address",
          "internalType": "address"
        },
        {
          "name": "_policyFactory",
          "type": "address",
          "internalType": "address"
        },
        {
          "name": "_checkerFactory",
          "type": "address",
          "internalType": "address"
        },
        {
          "name": "_voiceCreditProxyFactory",
          "type": "address",
          "internalType": "address"
        }
      ],
      "outputs": [],
      "stateMutability": "nonpayable"
    },
    {
      "type": "function",
      "name": "maci",
      "inputs": [],
      "outputs": [
        {
          "name": "",
          "type": "address",
          "internalType": "contract MACI"
        }
      ],
      "stateMutability": "view"
    },
    {
      "type": "function",
      "name": "minParticipation",
      "inputs": [],
      "outputs": [
        {
          "name": "",
          "type": "uint32",
          "internalType": "uint32"
        }
      ],
      "stateMutability": "view"
    },
    {
      "type": "function",
      "name": "minProposerVotingPower",
      "inputs": [],
      "outputs": [
        {
          "name": "",
          "type": "uint256",
          "internalType": "uint256"
        }
      ],
      "stateMutability": "view"
    },
    {
      "type": "function",
      "name": "pluginType",
      "inputs": [],
      "outputs": [
        {
          "name": "",
          "type": "uint8",
          "internalType": "enum IPlugin.PluginType"
        }
      ],
      "stateMutability": "pure"
    },
    {
      "type": "function",
      "name": "policyFactory",
      "inputs": [],
      "outputs": [
        {
          "name": "",
          "type": "address",
          "internalType": "contract IERC20VotesPolicyFactory"
        }
      ],
      "stateMutability": "view"
    },
    {
      "type": "function",
      "name": "proposalCount",
      "inputs": [],
      "outputs": [
        {
          "name": "",
          "type": "uint256",
          "internalType": "uint256"
        }
      ],
      "stateMutability": "view"
    },
    {
      "type": "function",
      "name": "protocolVersion",
      "inputs": [],
      "outputs": [
        {
          "name": "",
          "type": "uint8[3]",
          "internalType": "uint8[3]"
        }
      ],
      "stateMutability": "pure"
    },
    {
      "type": "function",
      "name": "proxiableUUID",
      "inputs": [],
      "outputs": [
        {
          "name": "",
          "type": "bytes32",
          "internalType": "bytes32"
        }
      ],
      "stateMutability": "view"
    },
    {
      "type": "function",
      "name": "supportsInterface",
      "inputs": [
        {
          "name": "_interfaceId",
          "type": "bytes4",
          "internalType": "bytes4"
        }
      ],
      "outputs": [
        {
          "name": "",
          "type": "bool",
          "internalType": "bool"
        }
      ],
      "stateMutability": "view"
    },
    {
      "type": "function",
      "name": "totalVotingPower",
      "inputs": [
        {
          "name": "_blockNumber",
          "type": "uint256",
          "internalType": "uint256"
        }
      ],
      "outputs": [
        {
          "name": "",
          "type": "uint256",
          "internalType": "uint256"
        }
      ],
      "stateMutability": "view"
    },
    {
      "type": "function",
      "name": "upgradeTo",
      "inputs": [
        {
          "name": "newAddress",
          "type": "address",
          "internalType": "address"
        }
      ],
      "outputs": [],
      "stateMutability": "pure"
    },
    {
      "type": "function",
      "name": "upgradeToAndCall",
      "inputs": [
        {
          "name": "newImplementation",
          "type": "address",
          "internalType": "address"
        },
        {
          "name": "data",
          "type": "bytes",
          "internalType": "bytes"
        }
      ],
      "outputs": [],
      "stateMutability": "payable"
    },
    {
      "type": "function",
      "name": "verifier",
      "inputs": [],
      "outputs": [
        {
          "name": "",
          "type": "address",
          "internalType": "address"
        }
      ],
      "stateMutability": "view"
    },
    {
      "type": "function",
      "name": "vkRegistry",
      "inputs": [],
      "outputs": [
        {
          "name": "",
          "type": "address",
          "internalType": "address"
        }
      ],
      "stateMutability": "view"
    },
    {
      "type": "function",
      "name": "voiceCreditProxyFactory",
      "inputs": [],
      "outputs": [
        {
          "name": "",
          "type": "address",
          "internalType": "contract IInitialVoiceCreditsProxyFactory"
        }
      ],
      "stateMutability": "view"
    },
    {
      "type": "function",
      "name": "votingSettings",
      "inputs": [],
      "outputs": [
        {
          "name": "minParticipation",
          "type": "uint32",
          "internalType": "uint32"
        },
        {
          "name": "minDuration",
          "type": "uint64",
          "internalType": "uint64"
        },
        {
          "name": "minProposerVotingPower",
          "type": "uint256",
          "internalType": "uint256"
        }
      ],
      "stateMutability": "view"
    },
    {
      "type": "event",
      "name": "AdminChanged",
      "inputs": [
        {
          "name": "previousAdmin",
          "type": "address",
          "indexed": false,
          "internalType": "address"
        },
        {
          "name": "newAdmin",
          "type": "address",
          "indexed": false,
          "internalType": "address"
        }
      ],
      "anonymous": false
    },
    {
      "type": "event",
      "name": "BeaconUpgraded",
      "inputs": [
        {
          "name": "beacon",
          "type": "address",
          "indexed": true,
          "internalType": "address"
        }
      ],
      "anonymous": false
    },
    {
      "type": "event",
      "name": "Initialized",
      "inputs": [
        {
          "name": "version",
          "type": "uint8",
          "indexed": false,
          "internalType": "uint8"
        }
      ],
      "anonymous": false
    },
    {
      "type": "event",
      "name": "ProposalCreated",
      "inputs": [
        {
          "name": "proposalId",
          "type": "uint256",
          "indexed": true,
          "internalType": "uint256"
        },
        {
          "name": "creator",
          "type": "address",
          "indexed": true,
          "internalType": "address"
        },
        {
          "name": "startDate",
          "type": "uint64",
          "indexed": false,
          "internalType": "uint64"
        },
        {
          "name": "endDate",
          "type": "uint64",
          "indexed": false,
          "internalType": "uint64"
        },
        {
          "name": "metadata",
          "type": "bytes",
          "indexed": false,
          "internalType": "bytes"
        },
        {
          "name": "actions",
          "type": "tuple[]",
          "indexed": false,
          "internalType": "struct IDAO.Action[]",
          "components": [
            {
              "name": "to",
              "type": "address",
              "internalType": "address"
            },
            {
              "name": "value",
              "type": "uint256",
              "internalType": "uint256"
            },
            {
              "name": "data",
              "type": "bytes",
              "internalType": "bytes"
            }
          ]
        },
        {
          "name": "allowFailureMap",
          "type": "uint256",
          "indexed": false,
          "internalType": "uint256"
        }
      ],
      "anonymous": false
    },
    {
      "type": "event",
      "name": "ProposalExecuted",
      "inputs": [
        {
          "name": "proposalId",
          "type": "uint256",
          "indexed": true,
          "internalType": "uint256"
        }
      ],
      "anonymous": false
    },
    {
      "type": "event",
      "name": "Upgraded",
      "inputs": [
        {
          "name": "implementation",
          "type": "address",
          "indexed": true,
          "internalType": "address"
        }
      ],
      "anonymous": false
    },
    {
      "type": "error",
      "name": "DaoUnauthorized",
      "inputs": [
        {
          "name": "dao",
          "type": "address",
          "internalType": "address"
        },
        {
          "name": "where",
          "type": "address",
          "internalType": "address"
        },
        {
          "name": "who",
          "type": "address",
          "internalType": "address"
        },
        {
          "name": "permissionId",
          "type": "bytes32",
          "internalType": "bytes32"
        }
      ]
    },
    {
      "type": "error",
      "name": "DateOutOfBounds",
      "inputs": [
        {
          "name": "limit",
          "type": "uint64",
          "internalType": "uint64"
        },
        {
          "name": "actual",
          "type": "uint64",
          "internalType": "uint64"
        }
      ]
    },
    {
      "type": "error",
      "name": "NoVotingPower",
      "inputs": []
    },
    {
      "type": "error",
      "name": "NonexistentProposal",
      "inputs": [
        {
          "name": "proposalId",
          "type": "uint256",
          "internalType": "uint256"
        }
      ]
    },
    {
      "type": "error",
      "name": "ProposalAlreadyExists",
      "inputs": [
        {
          "name": "proposalId",
          "type": "uint256",
          "internalType": "uint256"
        }
      ]
    },
    {
      "type": "error",
      "name": "ProposalCreationForbidden",
      "inputs": [
        {
          "name": "_address",
          "type": "address",
          "internalType": "address"
        }
      ]
    },
    {
      "type": "error",
      "name": "ProposalExecutionForbidden",
      "inputs": [
        {
          "name": "proposalId",
          "type": "uint256",
          "internalType": "uint256"
        }
      ]
    },
    {
      "type": "error",
      "name": "RatioOutOfBounds",
      "inputs": [
        {
          "name": "limit",
          "type": "uint256",
          "internalType": "uint256"
        },
        {
          "name": "actual",
          "type": "uint256",
          "internalType": "uint256"
        }
      ]
    }
  ],
  "bytecode": {
    "object": "0x60a06040523060805234801561001457600080fd5b5061001d61002a565b61002561002a565b6100ea565b600054610100900460ff16156100965760405162461bcd60e51b815260206004820152602760248201527f496e697469616c697a61626c653a20636f6e747261637420697320696e697469604482015266616c697a696e6760c81b606482015260840160405180910390fd5b60005460ff90811610156100e8576000805460ff191660ff9081179091556040519081527f7f26b83ff96e1f2b6a682f133852f6798a09c465da95921460cefb38474024989060200160405180910390a15b565b608051613a78610113600039600081816107d00152818161086601526109610152613a786000f3fe6080604052600436106101fe5760003560e01c80634f1ef2861161011d578063b0680646116100b0578063cc63604a1161007f578063e28c3b1911610064578063e28c3b191461066d578063f60046b21461068c578063fe0d94c1146106a257600080fd5b8063cc63604a14610638578063da35c6641461065857600080fd5b8063b068064614610580578063c218c132146105a1578063c7f758a8146105d7578063c9c4bfca1461060457600080fd5b80636e4f7a50116100ec5780636e4f7a50146105165780636e7fc2c31461052b57806372c347ca1461054b578063967e18ed1461056b57600080fd5b80634f1ef286146104b957806352d1902d146104cc578063536f9f42146104e15780635c60da1b1461050157600080fd5b80632b7ac3f3116101955780633659cfe6116101645780633659cfe61461043b5780633d3f4b1b1461045d5780634162169f1461047f57806341de68301461049d57600080fd5b80632b7ac3f3146103645780632ed5e02d1461038557806331e766a5146103e857806334a0922c1461041a57600080fd5b80630e749eca116101d15780630e749eca146102d957806313fb8932146102fa578063143154f91461031b5780632ae9c6001461034257600080fd5b806301ffc9a714610203578063054fd2c2146102385780630729d0541461025e5780630a6c9c2d146102a0575b600080fd5b34801561020f57600080fd5b5061022361021e366004612a0a565b6106c2565b60405190151581526020015b60405180910390f35b34801561024457600080fd5b506101635460405163ffffffff909116815260200161022f565b34801561026a57600080fd5b506102927fbf04b4486c9663d805744005c3da000eda93de6e3308a4a7a812eb565327b78d81565b60405190815260200161022f565b3480156102ac57600080fd5b50610168546102c1906001600160a01b031681565b6040516001600160a01b03909116815260200161022f565b3480156102e557600080fd5b50610167546102c1906001600160a01b031681565b34801561030657600080fd5b5061016a546102c1906001600160a01b031681565b34801561032757600080fd5b50610330600281565b60405160ff909116815260200161022f565b34801561034e57600080fd5b5061035761071e565b60405161022f9190612a4c565b34801561037057600080fd5b50610169546102c1906001600160a01b031681565b34801561039157600080fd5b5061016354610164546103bd9163ffffffff81169164010000000090910467ffffffffffffffff169083565b6040805163ffffffff909416845267ffffffffffffffff90921660208401529082015260600161022f565b3480156103f457600080fd5b506101615461016254610405919082565b6040805192835260208301919091520161022f565b34801561042657600080fd5b50610160546102c1906001600160a01b031681565b34801561044757600080fd5b5061045b610456366004612aa5565b610748565b005b34801561046957600080fd5b506104726107a6565b60405161022f9190612b12565b34801561048b57600080fd5b5060c9546001600160a01b03166102c1565b3480156104a957600080fd5b50600060405161022f9190612b54565b61045b6104c7366004612bf6565b6107c6565b3480156104d857600080fd5b50610292610954565b3480156104ed57600080fd5b506102926104fc366004612c89565b610a1a565b34801561050d57600080fd5b506102c1610aa2565b34801561052257600080fd5b50610330600a81565b34801561053757600080fd5b50610292610546366004612d0f565b610ada565b34801561055757600080fd5b5061045b610566366004612ddd565b610f32565b34801561057757600080fd5b50610330600181565b34801561058c57600080fd5b50610166546102c1906001600160a01b031681565b3480156105ad57600080fd5b506102236105bc366004612c89565b60009081526101656020526040902054610100900460ff1690565b3480156105e357600080fd5b506105f76105f2366004612c89565b6111d9565b60405161022f9190612f76565b34801561061057600080fd5b506102927f821b6e3a557148015a918c89e5d092e878a69854a2d1a410635f771bd5a8a3f581565b34801561064457600080fd5b50610223610653366004612c89565b61140e565b34801561066457600080fd5b50610292611481565b34801561067957600080fd5b5061015f546001600160a01b03166102c1565b34801561069857600080fd5b5061016454610292565b3480156106ae57600080fd5b5061045b6106bd366004612c89565b61148d565b60007fffffffff0000000000000000000000000000000000000000000000000000000082167f904f7cd30000000000000000000000000000000000000000000000000000000014806107185750610718826116a4565b92915050565b6107266129ec565b5060408051606081018252600181526004602082015260009181019190915290565b6001600160a01b0381166107a35760405162461bcd60e51b815260206004820152600b60248201527f4e6f7420616c6c6f77656400000000000000000000000000000000000000000060448201526064015b60405180910390fd5b50565b6060604051806080016040528060438152602001613a0e60439139905090565b6001600160a01b037f00000000000000000000000000000000000000000000000000000000000000001630036108645760405162461bcd60e51b815260206004820152602c60248201527f46756e6374696f6e206d7573742062652063616c6c6564207468726f7567682060448201527f64656c656761746563616c6c0000000000000000000000000000000000000000606482015260840161079a565b7f00000000000000000000000000000000000000000000000000000000000000006001600160a01b03166108bf7f360894a13ba1a3210667c828492db98dca3e2076cc3735a920a3ca505d382bbc546001600160a01b031690565b6001600160a01b03161461093b5760405162461bcd60e51b815260206004820152602c60248201527f46756e6374696f6e206d7573742062652063616c6c6564207468726f7567682060448201527f6163746976652070726f78790000000000000000000000000000000000000000606482015260840161079a565b610944826116fa565b61095082826001611733565b5050565b6000306001600160a01b037f000000000000000000000000000000000000000000000000000000000000000016146109f45760405162461bcd60e51b815260206004820152603860248201527f555550535570677261646561626c653a206d757374206e6f742062652063616c60448201527f6c6564207468726f7567682064656c656761746563616c6c0000000000000000606482015260840161079a565b507f360894a13ba1a3210667c828492db98dca3e2076cc3735a920a3ca505d382bbc5b90565b61015f546040517f8e539e8c000000000000000000000000000000000000000000000000000000008152600481018390526000916001600160a01b031690638e539e8c90602401602060405180830381865afa158015610a7e573d6000803e3d6000fd5b505050506040513d601f19601f820116820180604052508101906107189190613039565b6000610ad57f360894a13ba1a3210667c828492db98dca3e2076cc3735a920a3ca505d382bbc546001600160a01b031690565b905090565b600080610ae76101645490565b90508015610c5c5761015f5481906001600160a01b0316639ab24eb0336040517fffffffff0000000000000000000000000000000000000000000000000000000060e084901b1681526001600160a01b039091166004820152602401602060405180830381865afa158015610b60573d6000803e3d6000fd5b505050506040513d601f19601f82011682018060405250810190610b849190613039565b108015610c23575061015f5481906001600160a01b0316639ab24eb0336040517fffffffff0000000000000000000000000000000000000000000000000000000060e084901b1681526001600160a01b039091166004820152602401602060405180830381865afa158015610bfd573d6000803e3d6000fd5b505050506040513d601f19601f82011682018060405250810190610c219190613039565b105b15610c5c576040517feab9934400000000000000000000000000000000000000000000000000000000815233600482015260240161079a565b507fffffffffffffffffffffffffffffffffffffffffffffffffffffffffffffffff43016000610c8b82610a1a565b905080600003610cc7576040517f7c176b7400000000000000000000000000000000000000000000000000000000815260040160405180910390fd5b610cd185856118d8565b9095509350610cde611a14565b60008181526101656020526040902060010154909350700100000000000000000000000000000000900467ffffffffffffffff1615610d4c576040517f12dba68f0000000000000000000000000000000000000000000000000000000081526004810184905260240161079a565b60008381526101656020526040902080547fffffffffffffffffffffffffffffffffffffffffffffffffffffffffffffff0016600190811782558101805467ffffffffffffffff87811668010000000000000000027fffffffffffffffffffffffffffffffff0000000000000000000000000000000090921690891617179055610dd583611a2f565b60018201805467ffffffffffffffff92909216700100000000000000000000000000000000027fffffffffffffffff0000000000000000ffffffffffffffffffffffffffffffff909216919091179055610e4482610e396101635463ffffffff1690565b63ffffffff16611ab3565b600282018190556000908190610e5d9089908990611b43565b6005850182905580516006860180547fffffffffffffffffffffffff0000000000000000000000000000000000000000166001600160a01b0390921691909117905590925090508815610eb257600483018990555b60005b8a811015610f1157836003018c8c83818110610ed357610ed3613052565b9050602002810190610ee59190613081565b815460018101835560009283526020909220909160030201610f078282613160565b5050600101610eb5565b50610f228d8d8d8d8d8b8e8e611fdb565b5050505050979650505050505050565b600054610100900460ff1615808015610f525750600054600160ff909116105b80610f6c5750303b158015610f6c575060005460ff166001145b610fde5760405162461bcd60e51b815260206004820152602e60248201527f496e697469616c697a61626c653a20636f6e747261637420697320616c72656160448201527f647920696e697469616c697a6564000000000000000000000000000000000000606482015260840161079a565b600080547fffffffffffffffffffffffffffffffffffffffffffffffffffffffffffffff00166001179055801561103c57600080547fffffffffffffffffffffffffffffffffffffffffffffffffffffffffffff00ff166101001790555b6110458b612033565b61015f80546001600160a01b038981167fffffffffffffffffffffffff0000000000000000000000000000000000000000928316179092556101608054928d1692909116919091179055883561016155602089013561016255876101636110ac828261330f565b505061016980547fffffffffffffffffffffffff00000000000000000000000000000000000000009081166001600160a01b038981169190911790925561016a8054821688841617905561016680548216878416179055610167805482168684161790556101688054909116918416919091179055604080516060810182526002815260016020820152600a91015261016b80547fffffffffffffffffffffffffffffffffffffffffffffffffffffffffff00000016620a010217905580156111cc57600080547fffffffffffffffffffffffffffffffffffffffffffffffffffffffffffff00ff169055604051600181527f7f26b83ff96e1f2b6a682f133852f6798a09c465da95921460cefb38474024989060200160405180910390a15b5050505050505050505050565b6112426040805160e08101825260008082526020808301829052835160808101855282815290810182905280840182905260608101919091529091820190815260200160608152602001600081526020016000815260200160006001600160a01b031681525090565b600082815261016560209081526040808320815160e081018352815460ff80821615158352610100909104161515818501528251608081018452600183015467ffffffffffffffff8082168352680100000000000000008204811683880152700100000000000000000000000000000000909104168185015260028301546060808301919091528285019190915260038301805485518188028101880190965280865292969395918701949390929184015b828210156113d8576000848152602090819020604080516060810182526003860290920180546001600160a01b0316835260018101549383019390935260028301805492939291840191611347906130bf565b80601f0160208091040260200160405190810160405280929190818152602001828054611373906130bf565b80156113c05780601f10611395576101008083540402835291602001916113c0565b820191906000526020600020905b8154815290600101906020018083116113a357829003601f168201915b505050505081525050815260200190600101906112f4565b5050509082525060048201546020820152600582015460408201526006909101546001600160a01b031660609091015292915050565b60008181526101656020526040812060010154700100000000000000000000000000000000900467ffffffffffffffff16611478576040517f853c2a300000000000000000000000000000000000000000000000000000000081526004810183905260240161079a565b610718826120b9565b6000610ad561012d5490565b60c9547fbf04b4486c9663d805744005c3da000eda93de6e3308a4a7a812eb565327b78d906114cb906001600160a01b031630335b846000366123bd565b6114d4826120b9565b61150d576040517f9fefd0f10000000000000000000000000000000000000000000000000000000081526004810183905260240161079a565b60008281526101656020526040902080547fffffffffffffffffffffffffffffffffffffffffffffffffffffffffffff00ff1661010017815561167261155b60c9546001600160a01b031690565b8483600301805480602002602001604051908101604052809291908181526020016000905b82821015611664576000848152602090819020604080516060810182526003860290920180546001600160a01b03168352600181015493830193909352600283018054929392918401916115d3906130bf565b80601f01602080910402602001604051908101604052809291908181526020018280546115ff906130bf565b801561164c5780601f106116215761010080835404028352916020019161164c565b820191906000526020600020905b81548152906001019060200180831161162f57829003601f168201915b50505050508152505081526020019060010190611580565b5050505084600401546124ab565b505060405183907f712ae1383f79ac853f8d882153778e0260ef8f03b504e2866e0593e04d2b291f90600090a2505050565b60007fffffffff0000000000000000000000000000000000000000000000000000000082167fda35c66400000000000000000000000000000000000000000000000000000000148061071857506107188261257a565b60c9547f821b6e3a557148015a918c89e5d092e878a69854a2d1a410635f771bd5a8a3f590610950906001600160a01b031630336114c2565b7f4910fdfa16fed3260ed0e7147f7cc6da11a60208b5b9406d12a635614ffd91435460ff161561176b57611766836126a9565b505050565b826001600160a01b03166352d1902d6040518163ffffffff1660e01b8152600401602060405180830381865afa9250505080156117c5575060408051601f3d908101601f191682019092526117c291810190613039565b60015b6118375760405162461bcd60e51b815260206004820152602e60248201527f45524331393637557067726164653a206e657720696d706c656d656e7461746960448201527f6f6e206973206e6f742055555053000000000000000000000000000000000000606482015260840161079a565b7f360894a13ba1a3210667c828492db98dca3e2076cc3735a920a3ca505d382bbc81146118cc5760405162461bcd60e51b815260206004820152602960248201527f45524331393637557067726164653a20756e737570706f727465642070726f7860448201527f6961626c65555549440000000000000000000000000000000000000000000000606482015260840161079a565b5061176683838361277f565b60008060006118e642611a2f565b90508467ffffffffffffffff1660000361190257809250611967565b8492508067ffffffffffffffff168367ffffffffffffffff161015611967576040517f4cc9c0f400000000000000000000000000000000000000000000000000000000815267ffffffffffffffff80831660048301528416602482015260440161079a565b6101635460009061198a90640100000000900467ffffffffffffffff16856133d8565b90508467ffffffffffffffff166000036119a657809250611a0b565b8492508067ffffffffffffffff168367ffffffffffffffff161015611a0b576040517f4cc9c0f400000000000000000000000000000000000000000000000000000000815267ffffffffffffffff80831660048301528416602482015260440161079a565b50509250929050565b6000611a1e611481565b9050610a1761012d80546001019055565b600067ffffffffffffffff821115611aaf5760405162461bcd60e51b815260206004820152602660248201527f53616665436173743a2076616c756520646f65736e27742066697420696e203660448201527f3420626974730000000000000000000000000000000000000000000000000000606482015260840161079a565b5090565b6000620f4240821115611afe576040517fcc80c195000000000000000000000000000000000000000000000000000000008152620f424060048201526024810183905260440161079a565b611b0882846133f8565b92506000611b19620f42408561343e565b9050611b28620f424085613452565b91508015611b3c57611b3982613466565b91505b5092915050565b60408051606081018252600080825260208083018290528284018290528351600180825281860190955291938492918281019080368337019050509050600081600081518110611b9557611b95613052565b6001600160a01b0392831660209182029290920101526101675461015f546040517fcfda5478000000000000000000000000000000000000000000000000000000008152908316600482015243602482015260448101879052600092919091169063cfda5478906064016020604051808303816000875af1158015611c1e573d6000803e3d6000fd5b505050506040513d601f19601f82011682018060405250810190611c42919061349e565b610166546040517f4c96a3890000000000000000000000000000000000000000000000000000000081526001600160a01b03808416600483015292935060009290911690634c96a389906024016020604051808303816000875af1158015611cae573d6000803e3d6000fd5b505050506040513d601f19601f82011682018060405250810190611cd2919061349e565b6101685461015f546040517f6f24caaa0000000000000000000000000000000000000000000000000000000081524360048201526001600160a01b03918216602482015267016345785d8a00006044820152929350600092911690636f24caaa906064016020604051808303816000875af1158015611d55573d6000803e3d6000fd5b505050506040513d601f19601f82011682018060405250810190611d79919061349e565b604080516101808101825267ffffffffffffffff8c811682528b1660208083019190915282516060808201855261016b5460ff8082168452610100808304821685870152620100009092041683870152848601929092526014908401528351808501855261016154815261016254818401526080840152610169546001600160a01b0390811660a085015261016a54811660c0850152600160e08501528781169184019190915284811661012084015261014083018990526003610160808501919091525484517f2b786571000000000000000000000000000000000000000000000000000000008152945195965092946000949390911692632b7865719260048083019391928290030181865afa158015611e99573d6000803e3d6000fd5b505050506040513d601f19601f82011682018060405250810190611ebd9190613039565b610160546040517f7d9f541c0000000000000000000000000000000000000000000000000000000081529192506000916001600160a01b0390911690637d9f541c90611f0d908690600401613514565b6060604051808303816000875af1158015611f2c573d6000803e3d6000fd5b505050506040513d601f19601f82011682018060405250810190611f50919061361e565b80516040517f776d1a010000000000000000000000000000000000000000000000000000000081526001600160a01b03918216600482015291925086169063776d1a0190602401600060405180830381600087803b158015611fb157600080fd5b505af1158015611fc5573d6000803e3d6000fd5b50939e929d50919b505050505050505050505050565b336001600160a01b0316837fa6c1f8f4276dc3f243459e13b557c84e8f4e90b2e09070bad5f6909cee687c9284848c8c8c8c8c60405161202197969594939291906136bd565b60405180910390a35050505050505050565b600054610100900460ff166120b05760405162461bcd60e51b815260206004820152602b60248201527f496e697469616c697a61626c653a20636f6e7472616374206973206e6f74206960448201527f6e697469616c697a696e67000000000000000000000000000000000000000000606482015260840161079a565b6107a3816127aa565b6000818152610165602052604080822061016054600582015492517f1a8cbcaa0000000000000000000000000000000000000000000000000000000081526004810193909352909183916001600160a01b031690631a8cbcaa90602401606060405180830381865afa158015612133573d6000803e3d6000fd5b505050506040513d601f19601f82011682018060405250810190612157919061361e565b6040810151835491925090610100900460ff161561217a57506000949350505050565b806001600160a01b031663e3ff76066040518163ffffffff1660e01b8152600401602060405180830381865afa1580156121b8573d6000803e3d6000fd5b505050506040513d601f19601f820116820180604052508101906121dc9190613832565b6121eb57506000949350505050565b806001600160a01b031663fb346eab6040518163ffffffff1660e01b8152600401602060405180830381865afa158015612229573d6000803e3d6000fd5b505050506040513d601f19601f8201168201806040525081019061224d9190613039565b6002840154101561226357506000949350505050565b6040517f93ec604f0000000000000000000000000000000000000000000000000000000081526000600482018190529081906001600160a01b038416906393ec604f906024016040805180830381865afa1580156122c5573d6000803e3d6000fd5b505050506040513d601f19601f820116820180604052508101906122e9919061384d565b6040517f93ec604f00000000000000000000000000000000000000000000000000000000815260016004820152919350915060009081906001600160a01b038616906393ec604f906024016040805180830381865afa158015612350573d6000803e3d6000fd5b505050506040513d601f19601f82011682018060405250810190612374919061384d565b91509150821580612383575080155b156123975750600098975050505050505050565b838210156123ae5750600098975050505050505050565b50600198975050505050505050565b6040517ffdef91060000000000000000000000000000000000000000000000000000000081526001600160a01b0387169063fdef91069061240a9088908890889088908890600401613879565b602060405180830381865afa158015612427573d6000803e3d6000fd5b505050506040513d601f19601f8201168201806040525081019061244b9190613832565b6124a3576040517f32dbe3b40000000000000000000000000000000000000000000000000000000081526001600160a01b0380881660048301528087166024830152851660448201526064810184905260840161079a565b505050505050565b6040517fc71bf3240000000000000000000000000000000000000000000000000000000081526060906000906001600160a01b0387169063c71bf324906124fa908890889088906004016138bc565b6000604051808303816000875af1158015612519573d6000803e3d6000fd5b505050506040513d6000823e601f3d908101601f1916820160405261254191908101906138e5565b604051919350915085907f712ae1383f79ac853f8d882153778e0260ef8f03b504e2866e0593e04d2b291f90600090a294509492505050565b60007fffffffff0000000000000000000000000000000000000000000000000000000082167f41de683000000000000000000000000000000000000000000000000000000000148061260d57507fffffffff0000000000000000000000000000000000000000000000000000000082167f2ae9c60000000000000000000000000000000000000000000000000000000000145b8061265957507fffffffff0000000000000000000000000000000000000000000000000000000082167f52d1902d00000000000000000000000000000000000000000000000000000000145b8061071857507f01ffc9a7000000000000000000000000000000000000000000000000000000007fffffffff00000000000000000000000000000000000000000000000000000000831614610718565b6001600160a01b0381163b6127265760405162461bcd60e51b815260206004820152602d60248201527f455243313936373a206e657720696d706c656d656e746174696f6e206973206e60448201527f6f74206120636f6e747261637400000000000000000000000000000000000000606482015260840161079a565b7f360894a13ba1a3210667c828492db98dca3e2076cc3735a920a3ca505d382bbc80547fffffffffffffffffffffffff0000000000000000000000000000000000000000166001600160a01b0392909216919091179055565b61278883612861565b6000825111806127955750805b15611766576127a483836128a1565b50505050565b600054610100900460ff166128275760405162461bcd60e51b815260206004820152602b60248201527f496e697469616c697a61626c653a20636f6e7472616374206973206e6f74206960448201527f6e697469616c697a696e67000000000000000000000000000000000000000000606482015260840161079a565b60c980547fffffffffffffffffffffffff0000000000000000000000000000000000000000166001600160a01b0392909216919091179055565b61286a816126a9565b6040516001600160a01b038216907fbc7cd75a20ee27fd9adebab32041f755214dbc6bffa90cc0225b39da2e5c2d3b90600090a250565b60606001600160a01b0383163b6129205760405162461bcd60e51b815260206004820152602660248201527f416464726573733a2064656c65676174652063616c6c20746f206e6f6e2d636f60448201527f6e74726163740000000000000000000000000000000000000000000000000000606482015260840161079a565b600080846001600160a01b03168460405161293b91906139fb565b600060405180830381855af49150503d8060008114612976576040519150601f19603f3d011682016040523d82523d6000602084013e61297b565b606091505b50915091506129a38282604051806060016040528060278152602001613a51602791396129ac565b95945050505050565b606083156129bb5750816129e5565b8251156129cb5782518084602001fd5b8160405162461bcd60e51b815260040161079a9190612b12565b9392505050565b60405180606001604052806003906020820280368337509192915050565b600060208284031215612a1c57600080fd5b81357fffffffff00000000000000000000000000000000000000000000000000000000811681146129e557600080fd5b60608101818360005b6003811015612a7757815160ff16835260209283019290910190600101612a55565b50505092915050565b6001600160a01b03811681146107a357600080fd5b8035612aa081612a80565b919050565b600060208284031215612ab757600080fd5b81356129e581612a80565b60005b83811015612add578181015183820152602001612ac5565b50506000910152565b60008151808452612afe816020860160208601612ac2565b601f01601f19169290920160200192915050565b6020815260006129e56020830184612ae6565b7f4e487b7100000000000000000000000000000000000000000000000000000000600052602160045260246000fd5b6020810160038310612b6857612b68612b25565b91905290565b7f4e487b7100000000000000000000000000000000000000000000000000000000600052604160045260246000fd5b604051601f8201601f1916810167ffffffffffffffff81118282101715612bc657612bc6612b6e565b604052919050565b600067ffffffffffffffff821115612be857612be8612b6e565b50601f01601f191660200190565b60008060408385031215612c0957600080fd5b8235612c1481612a80565b9150602083013567ffffffffffffffff811115612c3057600080fd5b8301601f81018513612c4157600080fd5b8035612c54612c4f82612bce565b612b9d565b818152866020838501011115612c6957600080fd5b816020840160208301376000602083830101528093505050509250929050565b600060208284031215612c9b57600080fd5b5035919050565b60008083601f840112612cb457600080fd5b50813567ffffffffffffffff811115612ccc57600080fd5b6020830191508360208260051b8501011115612ce757600080fd5b9250929050565b67ffffffffffffffff811681146107a357600080fd5b8035612aa081612cee565b600080600080600080600060a0888a031215612d2a57600080fd5b873567ffffffffffffffff811115612d4157600080fd5b8801601f81018a13612d5257600080fd5b803567ffffffffffffffff811115612d6957600080fd5b8a6020828401011115612d7b57600080fd5b60209182019850965088013567ffffffffffffffff811115612d9c57600080fd5b612da88a828b01612ca2565b90965094505060408801359250612dc160608901612d04565b9150612dcf60808901612d04565b905092959891949750929550565b6000806000806000806000806000808a8c036101a0811215612dfe57600080fd5b8b35612e0981612a80565b9a5060208c0135612e1981612a80565b995060407fffffffffffffffffffffffffffffffffffffffffffffffffffffffffffffffc082011215612e4b57600080fd5b60408c01985060607fffffffffffffffffffffffffffffffffffffffffffffffffffffffffffffff8082011215612e8157600080fd5b5060808b019650612e9460e08c01612a95565b9550612ea36101008c01612a95565b9450612eb26101208c01612a95565b9350612ec16101408c01612a95565b9250612ed06101608c01612a95565b9150612edf6101808c01612a95565b90509295989b9194979a5092959850565b600082825180855260208501945060208160051b8301016020850160005b83811015612f6a57601f1985840301885281516001600160a01b038151168452602081015160208501526040810151905060606040850152612f536060850182612ae6565b6020998a0199909450929092019150600101612f0e565b50909695505050505050565b6020815281511515602082015260208201511515604082015260006040830151612fe2606084018267ffffffffffffffff815116825267ffffffffffffffff602082015116602083015267ffffffffffffffff6040820151166040830152606081015160608301525050565b50606083015161014060e0840152612ffe610160840182612ef0565b9050608084015161010084015260a084015161012084015260c08401516130316101408501826001600160a01b03169052565b509392505050565b60006020828403121561304b57600080fd5b5051919050565b7f4e487b7100000000000000000000000000000000000000000000000000000000600052603260045260246000fd5b600082357fffffffffffffffffffffffffffffffffffffffffffffffffffffffffffffffa18336030181126130b557600080fd5b9190910192915050565b600181811c908216806130d357607f821691505b60208210810361310c577f4e487b7100000000000000000000000000000000000000000000000000000000600052602260045260246000fd5b50919050565b601f82111561176657806000526020600020601f840160051c810160208510156131395750805b601f840160051c820191505b818110156131595760008155600101613145565b5050505050565b813561316b81612a80565b81547fffffffffffffffffffffffff0000000000000000000000000000000000000000166001600160a01b0391909116178155602082013560018201556040820135368390037fffffffffffffffffffffffffffffffffffffffffffffffffffffffffffffffe10181126131de57600080fd5b8201803567ffffffffffffffff8111156131f757600080fd5b60208201915080360382131561320c57600080fd5b6002830167ffffffffffffffff82111561322857613228612b6e565b61323c8261323683546130bf565b83613112565b6000601f83116001811461328e57600084156132585750848201355b7fffffffffffffffffffffffffffffffffffffffffffffffffffffffffffffffff600386901b1c1916600185901b178355613306565b600083815260209020601f19851690835b828110156132bf578785013582556020948501946001909201910161329f565b50858210156132fa577fffffffffffffffffffffffffffffffffffffffffffffffffffffffffffffffff60f88760031b161c19848801351681555b505060018460011b0183555b50505050505050565b813563ffffffff811680821461332457600080fd5b82549150807fffffffffffffffffffffffffffffffffffffffffffffffffffffffff000000008316178355602084013561335d81612cee565b7fffffffffffffffffffffffffffffffffffffffff000000000000000000000000929092161760209190911b6bffffffffffffffff000000001617815560409190910135600190910155565b7f4e487b7100000000000000000000000000000000000000000000000000000000600052601160045260246000fd5b67ffffffffffffffff8181168382160190811115610718576107186133a9565b8082028115828204841417610718576107186133a9565b7f4e487b7100000000000000000000000000000000000000000000000000000000600052601260045260246000fd5b60008261344d5761344d61340f565b500690565b6000826134615761346161340f565b500490565b60007fffffffffffffffffffffffffffffffffffffffffffffffffffffffffffffffff8203613497576134976133a9565b5060010190565b6000602082840312156134b057600080fd5b81516129e581612a80565b600281106134cb576134cb612b25565b9052565b600081518084526020840193506020830160005b8281101561350a5781516001600160a01b03168652602095860195909101906001016134e3565b5093949350505050565b6020815281516020820152602082015160408201526000604083015161355d606084018260ff815116825260ff602082015116602083015260ff60408201511660408301525050565b50606083015160ff811660c0840152506080830151805160e084015260208101516101008401525060a08301516001600160a01b0381166101208401525060c08301516001600160a01b0381166101408401525060e08301516135c46101608401826134bb565b506101008301516001600160a01b03908116610180840152610120840151166101a08301526101408301516101e06101c08401526136066102008401826134cf565b90506101608401516101e08401528091505092915050565b6000606082840312801561363157600080fd5b506040516060810167ffffffffffffffff8111828210171561365557613655612b6e565b604052825161366381612a80565b8152602083015161367381612a80565b6020820152604083015161368681612a80565b60408201529392505050565b818352818160208501375060006020828401015260006020601f19601f840116840101905092915050565b67ffffffffffffffff8816815267ffffffffffffffff8716602082015260a0604082015260006136f160a083018789613692565b82810360608401528085825260208201905060208660051b8301018760007fffffffffffffffffffffffffffffffffffffffffffffffffffffffffffffffa18a3603015b8982101561380757601f19868503018552823581811261375457600080fd5b8b01803561376181612a80565b6001600160a01b03168552602081810135908601526040810135368290037fffffffffffffffffffffffffffffffffffffffffffffffffffffffffffffffe10181126137ac57600080fd5b0160208101903567ffffffffffffffff8111156137c857600080fd5b8036038213156137d757600080fd5b606060408701526137ec606087018284613692565b95505050602083019250602085019450600182019150613735565b50505080935050505082608083015298975050505050505050565b80518015158114612aa057600080fd5b60006020828403121561384457600080fd5b6129e582613822565b6000806040838503121561386057600080fd5b8251915061387060208401613822565b90509250929050565b6001600160a01b03861681526001600160a01b03851660208201528360408201526080606082015260006138b1608083018486613692565b979650505050505050565b8381526060602082015260006138d56060830185612ef0565b9050826040830152949350505050565b600080604083850312156138f857600080fd5b825167ffffffffffffffff81111561390f57600080fd5b8301601f8101851361392057600080fd5b805167ffffffffffffffff81111561393a5761393a612b6e565b8060051b61394a60208201612b9d565b9182526020818401810192908101908884111561396657600080fd5b6020850192505b838310156139e757825167ffffffffffffffff81111561398c57600080fd5b8501603f81018a1361399d57600080fd5b60208101516139ae612c4f82612bce565b8181526040838301018c10156139c357600080fd5b6139d4826020830160408601612ac2565b845250506020928301929091019061396d565b602097909701519698969750505050505050565b600082516130b5818460208701612ac256fe2875696e7432353620616c6c6f774661696c7572654d61702c2075696e743820766f74654f7074696f6e2c20626f6f6c207472794561726c79457865637574696f6e29416464726573733a206c6f772d6c6576656c2064656c65676174652063616c6c206661696c6564",
    "linkReferences": {}
  },
  "methodIdentifiers": {
    "EXECUTE_PERMISSION_ID()": "0729d054",
    "INT_STATE_TREE_DEPTH()": "143154f9",
    "STATE_TREE_DEPTH()": "6e4f7a50",
    "UPGRADE_PLUGIN_PERMISSION_ID()": "c9c4bfca",
    "VOTE_OPTION_TREE_DEPTH()": "967e18ed",
    "canExecute(uint256)": "cc63604a",
    "checkerFactory()": "0e749eca",
    "coordinatorPubKey()": "31e766a5",
    "createProposal(bytes,(address,uint256,bytes)[],uint256,uint64,uint64)": "6e7fc2c3",
    "customProposalParamsABI()": "3d3f4b1b",
    "dao()": "4162169f",
    "execute(uint256)": "fe0d94c1",
    "getProposal(uint256)": "c7f758a8",
    "getVotingToken()": "e28c3b19",
    "hasSucceeded(uint256)": "c218c132",
    "implementation()": "5c60da1b",
    "initialize(address,address,(uint256,uint256),(uint32,uint64,uint256),address,address,address,address,address,address)": "72c347ca",
    "maci()": "34a0922c",
    "minParticipation()": "054fd2c2",
    "minProposerVotingPower()": "f60046b2",
    "pluginType()": "41de6830",
    "policyFactory()": "b0680646",
    "proposalCount()": "da35c664",
    "protocolVersion()": "2ae9c600",
    "proxiableUUID()": "52d1902d",
    "supportsInterface(bytes4)": "01ffc9a7",
    "totalVotingPower(uint256)": "536f9f42",
    "upgradeTo(address)": "3659cfe6",
    "upgradeToAndCall(address,bytes)": "4f1ef286",
    "verifier()": "2b7ac3f3",
    "vkRegistry()": "13fb8932",
    "voiceCreditProxyFactory()": "0a6c9c2d",
    "votingSettings()": "2ed5e02d"
  },
  "id": 143
}