{
  "abi": [
    {
      "type": "constructor",
      "inputs": [],
      "stateMutability": "nonpayable"
    },
    {
      "type": "function",
      "name": "CREATE_PROPOSAL_PERMISSION_ID",
      "inputs": [],
      "outputs": [
        {
          "name": "",
          "type": "bytes32",
          "internalType": "bytes32"
        }
      ],
      "stateMutability": "view"
    },
    {
      "type": "function",
      "name": "EXECUTE_PERMISSION_ID",
      "inputs": [],
      "outputs": [
        {
          "name": "",
          "type": "bytes32",
          "internalType": "bytes32"
        }
      ],
      "stateMutability": "view"
    },
    {
      "type": "function",
      "name": "INT_STATE_TREE_DEPTH",
      "inputs": [],
      "outputs": [
        {
          "name": "",
          "type": "uint8",
          "internalType": "uint8"
        }
      ],
      "stateMutability": "view"
    },
    {
      "type": "function",
      "name": "STATE_TREE_DEPTH",
      "inputs": [],
      "outputs": [
        {
          "name": "",
          "type": "uint8",
          "internalType": "uint8"
        }
      ],
      "stateMutability": "view"
    },
    {
      "type": "function",
      "name": "UPGRADE_PLUGIN_PERMISSION_ID",
      "inputs": [],
      "outputs": [
        {
          "name": "",
          "type": "bytes32",
          "internalType": "bytes32"
        }
      ],
      "stateMutability": "view"
    },
    {
      "type": "function",
      "name": "VOTE_OPTION_TREE_DEPTH",
      "inputs": [],
      "outputs": [
        {
          "name": "",
          "type": "uint8",
          "internalType": "uint8"
        }
      ],
      "stateMutability": "view"
    },
    {
      "type": "function",
      "name": "canExecute",
      "inputs": [
        {
          "name": "_proposalId",
          "type": "uint256",
          "internalType": "uint256"
        }
      ],
      "outputs": [
        {
          "name": "",
          "type": "bool",
          "internalType": "bool"
        }
      ],
      "stateMutability": "view"
    },
    {
      "type": "function",
      "name": "checkerFactory",
      "inputs": [],
      "outputs": [
        {
          "name": "",
          "type": "address",
          "internalType": "contract IERC20VotesCheckerFactory"
        }
      ],
      "stateMutability": "view"
    },
    {
      "type": "function",
      "name": "coordinatorPubKey",
      "inputs": [],
      "outputs": [
        {
          "name": "x",
          "type": "uint256",
          "internalType": "uint256"
        },
        {
          "name": "y",
          "type": "uint256",
          "internalType": "uint256"
        }
      ],
      "stateMutability": "view"
    },
    {
      "type": "function",
      "name": "createProposal",
      "inputs": [
        {
          "name": "_metadata",
          "type": "bytes",
          "internalType": "bytes"
        },
        {
          "name": "_actions",
          "type": "tuple[]",
          "internalType": "struct IDAO.Action[]",
          "components": [
            {
              "name": "to",
              "type": "address",
              "internalType": "address"
            },
            {
              "name": "value",
              "type": "uint256",
              "internalType": "uint256"
            },
            {
              "name": "data",
              "type": "bytes",
              "internalType": "bytes"
            }
          ]
        },
        {
          "name": "_allowFailureMap",
          "type": "uint256",
          "internalType": "uint256"
        },
        {
          "name": "_startDate",
          "type": "uint64",
          "internalType": "uint64"
        },
        {
          "name": "_endDate",
          "type": "uint64",
          "internalType": "uint64"
        }
      ],
      "outputs": [
        {
          "name": "proposalId",
          "type": "uint256",
          "internalType": "uint256"
        }
      ],
      "stateMutability": "nonpayable"
    },
    {
      "type": "function",
      "name": "createProposal",
      "inputs": [
        {
          "name": "_metadata",
          "type": "bytes",
          "internalType": "bytes"
        },
        {
          "name": "_actions",
          "type": "tuple[]",
          "internalType": "struct IDAO.Action[]",
          "components": [
            {
              "name": "to",
              "type": "address",
              "internalType": "address"
            },
            {
              "name": "value",
              "type": "uint256",
              "internalType": "uint256"
            },
            {
              "name": "data",
              "type": "bytes",
              "internalType": "bytes"
            }
          ]
        },
        {
          "name": "_startDate",
          "type": "uint64",
          "internalType": "uint64"
        },
        {
          "name": "_endDate",
          "type": "uint64",
          "internalType": "uint64"
        },
        {
          "name": "_data",
          "type": "bytes",
          "internalType": "bytes"
        }
      ],
      "outputs": [
        {
          "name": "proposalId",
          "type": "uint256",
          "internalType": "uint256"
        }
      ],
      "stateMutability": "nonpayable"
    },
    {
      "type": "function",
      "name": "customProposalParamsABI",
      "inputs": [],
      "outputs": [
        {
          "name": "",
          "type": "string",
          "internalType": "string"
        }
      ],
      "stateMutability": "pure"
    },
    {
      "type": "function",
      "name": "dao",
      "inputs": [],
      "outputs": [
        {
          "name": "",
          "type": "address",
          "internalType": "contract IDAO"
        }
      ],
      "stateMutability": "view"
    },
    {
      "type": "function",
      "name": "execute",
      "inputs": [
        {
          "name": "_proposalId",
          "type": "uint256",
          "internalType": "uint256"
        }
      ],
      "outputs": [],
      "stateMutability": "nonpayable"
    },
    {
      "type": "function",
      "name": "getVotingToken",
      "inputs": [],
      "outputs": [
        {
          "name": "",
          "type": "address",
          "internalType": "contract IVotesUpgradeable"
        }
      ],
      "stateMutability": "view"
    },
    {
      "type": "function",
      "name": "hasSucceeded",
      "inputs": [
        {
          "name": "_proposalId",
          "type": "uint256",
          "internalType": "uint256"
        }
      ],
      "outputs": [
        {
          "name": "",
          "type": "bool",
          "internalType": "bool"
        }
      ],
      "stateMutability": "view"
    },
    {
      "type": "function",
      "name": "implementation",
      "inputs": [],
      "outputs": [
        {
          "name": "",
          "type": "address",
          "internalType": "address"
        }
      ],
      "stateMutability": "view"
    },
    {
      "type": "function",
      "name": "initialize",
      "inputs": [
        {
          "name": "_dao",
          "type": "address",
          "internalType": "contract IDAO"
        },
        {
          "name": "_maci",
          "type": "address",
          "internalType": "address"
        },
        {
          "name": "_coordinatorPubKey",
          "type": "tuple",
          "internalType": "struct DomainObjs.PublicKey",
          "components": [
            {
              "name": "x",
              "type": "uint256",
              "internalType": "uint256"
            },
            {
              "name": "y",
              "type": "uint256",
              "internalType": "uint256"
            }
          ]
        },
        {
          "name": "_votingSettings",
          "type": "tuple",
          "internalType": "struct IMaciVoting.VotingSettings",
          "components": [
            {
              "name": "minParticipation",
              "type": "uint32",
              "internalType": "uint32"
            },
            {
              "name": "minDuration",
              "type": "uint64",
              "internalType": "uint64"
            },
            {
              "name": "minProposerVotingPower",
              "type": "uint256",
              "internalType": "uint256"
            }
          ]
        },
        {
          "name": "_verifier",
          "type": "address",
          "internalType": "address"
        },
        {
          "name": "_vkRegistry",
          "type": "address",
          "internalType": "address"
        },
        {
          "name": "_policyFactory",
          "type": "address",
          "internalType": "address"
        },
        {
          "name": "_checkerFactory",
          "type": "address",
          "internalType": "address"
        },
        {
          "name": "_voiceCreditProxyFactory",
          "type": "address",
          "internalType": "address"
        }
      ],
      "outputs": [],
      "stateMutability": "nonpayable"
    },
    {
      "type": "function",
      "name": "maci",
      "inputs": [],
      "outputs": [
        {
          "name": "",
          "type": "address",
          "internalType": "contract MACI"
        }
      ],
      "stateMutability": "view"
    },
    {
      "type": "function",
      "name": "minParticipation",
      "inputs": [],
      "outputs": [
        {
          "name": "",
          "type": "uint32",
          "internalType": "uint32"
        }
      ],
      "stateMutability": "view"
    },
    {
      "type": "function",
      "name": "minProposerVotingPower",
      "inputs": [],
      "outputs": [
        {
          "name": "",
          "type": "uint256",
          "internalType": "uint256"
        }
      ],
      "stateMutability": "view"
    },
    {
      "type": "function",
      "name": "pluginType",
      "inputs": [],
      "outputs": [
        {
          "name": "",
          "type": "uint8",
          "internalType": "enum IPlugin.PluginType"
        }
      ],
      "stateMutability": "pure"
    },
    {
      "type": "function",
      "name": "policyFactory",
      "inputs": [],
      "outputs": [
        {
          "name": "",
          "type": "address",
          "internalType": "contract IERC20VotesPolicyFactory"
        }
      ],
      "stateMutability": "view"
    },
    {
      "type": "function",
      "name": "proposalCount",
      "inputs": [],
      "outputs": [
        {
          "name": "",
          "type": "uint256",
          "internalType": "uint256"
        }
      ],
      "stateMutability": "view"
    },
    {
      "type": "function",
      "name": "proposals",
      "inputs": [
        {
          "name": "",
          "type": "uint256",
          "internalType": "uint256"
        }
      ],
      "outputs": [
        {
          "name": "executed",
          "type": "bool",
          "internalType": "bool"
        },
        {
          "name": "parameters",
          "type": "tuple",
          "internalType": "struct MaciVoting.ProposalParameters",
          "components": [
            {
              "name": "startDate",
              "type": "uint64",
              "internalType": "uint64"
            },
            {
              "name": "endDate",
              "type": "uint64",
              "internalType": "uint64"
            },
            {
              "name": "snapshotBlock",
              "type": "uint64",
              "internalType": "uint64"
            },
            {
              "name": "minVotingPower",
              "type": "uint256",
              "internalType": "uint256"
            }
          ]
        },
        {
          "name": "allowFailureMap",
          "type": "uint256",
          "internalType": "uint256"
        },
        {
          "name": "pollId",
          "type": "uint256",
          "internalType": "uint256"
        },
        {
          "name": "pollAddress",
          "type": "address",
          "internalType": "address"
        }
      ],
      "stateMutability": "view"
    },
    {
      "type": "function",
      "name": "protocolVersion",
      "inputs": [],
      "outputs": [
        {
          "name": "",
          "type": "uint8[3]",
          "internalType": "uint8[3]"
        }
      ],
      "stateMutability": "pure"
    },
    {
      "type": "function",
      "name": "proxiableUUID",
      "inputs": [],
      "outputs": [
        {
          "name": "",
          "type": "bytes32",
          "internalType": "bytes32"
        }
      ],
      "stateMutability": "view"
    },
    {
      "type": "function",
      "name": "supportsInterface",
      "inputs": [
        {
          "name": "_interfaceId",
          "type": "bytes4",
          "internalType": "bytes4"
        }
      ],
      "outputs": [
        {
          "name": "",
          "type": "bool",
          "internalType": "bool"
        }
      ],
      "stateMutability": "view"
    },
    {
      "type": "function",
      "name": "totalVotingPower",
      "inputs": [
        {
          "name": "_blockNumber",
          "type": "uint256",
          "internalType": "uint256"
        }
      ],
      "outputs": [
        {
          "name": "",
          "type": "uint256",
          "internalType": "uint256"
        }
      ],
      "stateMutability": "view"
    },
    {
      "type": "function",
      "name": "upgradeTo",
      "inputs": [
        {
          "name": "newAddress",
          "type": "address",
          "internalType": "address"
        }
      ],
      "outputs": [],
      "stateMutability": "pure"
    },
    {
      "type": "function",
      "name": "upgradeToAndCall",
      "inputs": [
        {
          "name": "newImplementation",
          "type": "address",
          "internalType": "address"
        },
        {
          "name": "data",
          "type": "bytes",
          "internalType": "bytes"
        }
      ],
      "outputs": [],
      "stateMutability": "payable"
    },
    {
      "type": "function",
      "name": "verifier",
      "inputs": [],
      "outputs": [
        {
          "name": "",
          "type": "address",
          "internalType": "address"
        }
      ],
      "stateMutability": "view"
    },
    {
      "type": "function",
      "name": "vkRegistry",
      "inputs": [],
      "outputs": [
        {
          "name": "",
          "type": "address",
          "internalType": "address"
        }
      ],
      "stateMutability": "view"
    },
    {
      "type": "function",
      "name": "voiceCreditProxyFactory",
      "inputs": [],
      "outputs": [
        {
          "name": "",
          "type": "address",
          "internalType": "contract IInitialVoiceCreditsProxyFactory"
        }
      ],
      "stateMutability": "view"
    },
    {
      "type": "function",
      "name": "votingSettings",
      "inputs": [],
      "outputs": [
        {
          "name": "minParticipation",
          "type": "uint32",
          "internalType": "uint32"
        },
        {
          "name": "minDuration",
          "type": "uint64",
          "internalType": "uint64"
        },
        {
          "name": "minProposerVotingPower",
          "type": "uint256",
          "internalType": "uint256"
        }
      ],
      "stateMutability": "view"
    },
    {
      "type": "event",
      "name": "AdminChanged",
      "inputs": [
        {
          "name": "previousAdmin",
          "type": "address",
          "indexed": false,
          "internalType": "address"
        },
        {
          "name": "newAdmin",
          "type": "address",
          "indexed": false,
          "internalType": "address"
        }
      ],
      "anonymous": false
    },
    {
      "type": "event",
      "name": "BeaconUpgraded",
      "inputs": [
        {
          "name": "beacon",
          "type": "address",
          "indexed": true,
          "internalType": "address"
        }
      ],
      "anonymous": false
    },
    {
      "type": "event",
      "name": "Initialized",
      "inputs": [
        {
          "name": "version",
          "type": "uint8",
          "indexed": false,
          "internalType": "uint8"
        }
      ],
      "anonymous": false
    },
    {
      "type": "event",
      "name": "ProposalCreated",
      "inputs": [
        {
          "name": "proposalId",
          "type": "uint256",
          "indexed": true,
          "internalType": "uint256"
        },
        {
          "name": "creator",
          "type": "address",
          "indexed": true,
          "internalType": "address"
        },
        {
          "name": "startDate",
          "type": "uint64",
          "indexed": false,
          "internalType": "uint64"
        },
        {
          "name": "endDate",
          "type": "uint64",
          "indexed": false,
          "internalType": "uint64"
        },
        {
          "name": "metadata",
          "type": "bytes",
          "indexed": false,
          "internalType": "bytes"
        },
        {
          "name": "actions",
          "type": "tuple[]",
          "indexed": false,
          "internalType": "struct IDAO.Action[]",
          "components": [
            {
              "name": "to",
              "type": "address",
              "internalType": "address"
            },
            {
              "name": "value",
              "type": "uint256",
              "internalType": "uint256"
            },
            {
              "name": "data",
              "type": "bytes",
              "internalType": "bytes"
            }
          ]
        },
        {
          "name": "allowFailureMap",
          "type": "uint256",
          "indexed": false,
          "internalType": "uint256"
        }
      ],
      "anonymous": false
    },
    {
      "type": "event",
      "name": "ProposalExecuted",
      "inputs": [
        {
          "name": "proposalId",
          "type": "uint256",
          "indexed": true,
          "internalType": "uint256"
        }
      ],
      "anonymous": false
    },
    {
      "type": "event",
      "name": "Upgraded",
      "inputs": [
        {
          "name": "implementation",
          "type": "address",
          "indexed": true,
          "internalType": "address"
        }
      ],
      "anonymous": false
    },
    {
      "type": "error",
      "name": "DaoUnauthorized",
      "inputs": [
        {
          "name": "dao",
          "type": "address",
          "internalType": "address"
        },
        {
          "name": "where",
          "type": "address",
          "internalType": "address"
        },
        {
          "name": "who",
          "type": "address",
          "internalType": "address"
        },
        {
          "name": "permissionId",
          "type": "bytes32",
          "internalType": "bytes32"
        }
      ]
    },
    {
      "type": "error",
      "name": "DateOutOfBounds",
      "inputs": [
        {
          "name": "limit",
          "type": "uint64",
          "internalType": "uint64"
        },
        {
          "name": "actual",
          "type": "uint64",
          "internalType": "uint64"
        }
      ]
    },
    {
      "type": "error",
      "name": "NoVotingPower",
      "inputs": []
    },
    {
      "type": "error",
      "name": "NonexistentProposal",
      "inputs": [
        {
          "name": "proposalId",
          "type": "uint256",
          "internalType": "uint256"
        }
      ]
    },
    {
      "type": "error",
      "name": "ProposalAlreadyExists",
      "inputs": [
        {
          "name": "proposalId",
          "type": "uint256",
          "internalType": "uint256"
        }
      ]
    },
    {
      "type": "error",
      "name": "ProposalCreationForbidden",
      "inputs": [
        {
          "name": "_address",
          "type": "address",
          "internalType": "address"
        }
      ]
    },
    {
      "type": "error",
      "name": "ProposalExecutionForbidden",
      "inputs": [
        {
          "name": "proposalId",
          "type": "uint256",
          "internalType": "uint256"
        }
      ]
    },
    {
      "type": "error",
      "name": "RatioOutOfBounds",
      "inputs": [
        {
          "name": "limit",
          "type": "uint256",
          "internalType": "uint256"
        },
        {
          "name": "actual",
          "type": "uint256",
          "internalType": "uint256"
        }
      ]
    }
  ],
  "bytecode": {
    "object": "0x60a06040523060805234801561001457600080fd5b5061001d61002a565b61002561002a565b6100ea565b600054610100900460ff16156100965760405162461bcd60e51b815260206004820152602760248201527f496e697469616c697a61626c653a20636f6e747261637420697320696e697469604482015266616c697a696e6760c81b606482015260840160405180910390fd5b60005460ff90811610156100e8576000805460ff191660ff9081179091556040519081527f7f26b83ff96e1f2b6a682f133852f6798a09c465da95921460cefb38474024989060200160405180910390a15b565b608051613a0561011360003960008181610bcb01528181610c610152610d5c0152613a056000f3fe6080604052600436106102345760003560e01c80634162169f11610138578063b0680646116100b0578063da35c6641161007f578063ea65ab8211610064578063ea65ab8214610737578063f60046b214610757578063fe0d94c11461076d57600080fd5b8063da35c66414610703578063e28c3b191461071857600080fd5b8063b06806461461066e578063c218c1321461068f578063c9c4bfca146106af578063cc63604a146106e357600080fd5b8063536f9f42116101075780636e4f7a50116100ec5780636e4f7a50146106245780636e7fc2c314610639578063967e18ed1461065957600080fd5b8063536f9f42146105ef5780635c60da1b1461060f57600080fd5b80634162169f1461058d57806341de6830146105ab5780634f1ef286146105c757806352d1902d146105da57600080fd5b8063143154f9116101cb5780632ed5e02d1161019a57806334a0922c1161017f57806334a0922c1461052a5780633659cfe61461054b5780633d3f4b1b1461056b57600080fd5b80632ed5e02d1461049557806331e766a5146104f857600080fd5b8063143154f91461040957806327b8c6dc146104305780632ae9c600146104525780632b7ac3f31461047457600080fd5b80630a6c9c2d116102075780630a6c9c2d1461035a5780630e749eca1461039357806311ce2438146103b457806313fb8932146103e857600080fd5b8063013cf08b1461023957806301ffc9a7146102c2578063054fd2c2146102f25780630729d05414610318575b600080fd5b34801561024557600080fd5b50610259610254366004612977565b61078d565b604080519515158652845167ffffffffffffffff908116602080890191909152860151811687830152908501511660608087019190915290930151608085015260a084019190915260c08301526001600160a01b031660e0820152610100015b60405180910390f35b3480156102ce57600080fd5b506102e26102dd366004612990565b61082d565b60405190151581526020016102b9565b3480156102fe57600080fd5b506101635460405163ffffffff90911681526020016102b9565b34801561032457600080fd5b5061034c7fbf04b4486c9663d805744005c3da000eda93de6e3308a4a7a812eb565327b78d81565b6040519081526020016102b9565b34801561036657600080fd5b506101685461037b906001600160a01b031681565b6040516001600160a01b0390911681526020016102b9565b34801561039f57600080fd5b506101675461037b906001600160a01b031681565b3480156103c057600080fd5b5061034c7f8c433a4cd6b51969eca37f974940894297b9fcf4b282a213fea5cd8f85289c9081565b3480156103f457600080fd5b5061016a5461037b906001600160a01b031681565b34801561041557600080fd5b5061041e600281565b60405160ff90911681526020016102b9565b34801561043c57600080fd5b5061045061044b3660046129f7565b610889565b005b34801561045e57600080fd5b50610467610b1e565b6040516102b99190612afa565b34801561048057600080fd5b506101695461037b906001600160a01b031681565b3480156104a157600080fd5b5061016354610164546104cd9163ffffffff81169164010000000090910467ffffffffffffffff169083565b6040805163ffffffff909416845267ffffffffffffffff9092166020840152908201526060016102b9565b34801561050457600080fd5b506101615461016254610515919082565b604080519283526020830191909152016102b9565b34801561053657600080fd5b506101605461037b906001600160a01b031681565b34801561055757600080fd5b50610450610566366004612b2e565b610b48565b34801561057757600080fd5b50610580610ba1565b6040516102b99190612b9b565b34801561059957600080fd5b5060c9546001600160a01b031661037b565b3480156105b757600080fd5b5060006040516102b99190612bdd565b6104506105d5366004612cd5565b610bc1565b3480156105e657600080fd5b5061034c610d4f565b3480156105fb57600080fd5b5061034c61060a366004612977565b610e15565b34801561061b57600080fd5b5061037b610e9d565b34801561063057600080fd5b5061041e600a81565b34801561064557600080fd5b5061034c610654366004612dc9565b610ed5565b34801561066557600080fd5b5061041e600181565b34801561067a57600080fd5b506101665461037b906001600160a01b031681565b34801561069b57600080fd5b506102e26106aa366004612977565b611333565b3480156106bb57600080fd5b5061034c7f821b6e3a557148015a918c89e5d092e878a69854a2d1a410635f771bd5a8a3f581565b3480156106ef57600080fd5b506102e26106fe366004612977565b611363565b34801561070f57600080fd5b5061034c6113b0565b34801561072457600080fd5b5061015f546001600160a01b031661037b565b34801561074357600080fd5b5061034c610752366004612e6e565b6113bc565b34801561076357600080fd5b506101645461034c565b34801561077957600080fd5b50610450610788366004612977565b6113fb565b610165818154811061079e57600080fd5b6000918252602091829020600790910201805460408051608081018252600184015467ffffffffffffffff8082168352680100000000000000008204811696830196909652700100000000000000000000000000000000900490941690840152600282015460608401526004820154600583015460069093015460ff909216945091906001600160a01b031685565b60007fffffffff0000000000000000000000000000000000000000000000000000000082167fc534fdc5000000000000000000000000000000000000000000000000000000001480610883575061088382611625565b92915050565b600054610100900460ff16158080156108a95750600054600160ff909116105b806108c35750303b1580156108c3575060005460ff166001145b61093a5760405162461bcd60e51b815260206004820152602e60248201527f496e697469616c697a61626c653a20636f6e747261637420697320616c72656160448201527f647920696e697469616c697a656400000000000000000000000000000000000060648201526084015b60405180910390fd5b600080547fffffffffffffffffffffffffffffffffffffffffffffffffffffffffffffff00166001179055801561099857600080547fffffffffffffffffffffffffffffffffffffffffffffffffffffffffffff00ff166101001790555b6109a18a61167b565b61016080547fffffffffffffffffffffffff0000000000000000000000000000000000000000166001600160a01b038b16179055873561016155602088013561016255866101636109f28282612f33565b505061016980547fffffffffffffffffffffffff00000000000000000000000000000000000000009081166001600160a01b038981169190911790925561016a8054821688841617905561016680548216878416179055610167805482168684161790556101688054909116918416919091179055604080516060810182526002815260016020820152600a91015261016b80547fffffffffffffffffffffffffffffffffffffffffffffffffffffffffff00000016620a01021790558015610b1257600080547fffffffffffffffffffffffffffffffffffffffffffffffffffffffffffff00ff169055604051600181527f7f26b83ff96e1f2b6a682f133852f6798a09c465da95921460cefb38474024989060200160405180910390a15b50505050505050505050565b610b26612959565b5060408051606081018252600181526004602082015260009181019190915290565b6001600160a01b038116610b9e5760405162461bcd60e51b815260206004820152600b60248201527f4e6f7420616c6c6f7765640000000000000000000000000000000000000000006044820152606401610931565b50565b606060405180608001604052806043815260200161399b60439139905090565b6001600160a01b037f0000000000000000000000000000000000000000000000000000000000000000163003610c5f5760405162461bcd60e51b815260206004820152602c60248201527f46756e6374696f6e206d7573742062652063616c6c6564207468726f7567682060448201527f64656c656761746563616c6c00000000000000000000000000000000000000006064820152608401610931565b7f00000000000000000000000000000000000000000000000000000000000000006001600160a01b0316610cba7f360894a13ba1a3210667c828492db98dca3e2076cc3735a920a3ca505d382bbc546001600160a01b031690565b6001600160a01b031614610d365760405162461bcd60e51b815260206004820152602c60248201527f46756e6374696f6e206d7573742062652063616c6c6564207468726f7567682060448201527f6163746976652070726f787900000000000000000000000000000000000000006064820152608401610931565b610d3f82611701565b610d4b8282600161173a565b5050565b6000306001600160a01b037f00000000000000000000000000000000000000000000000000000000000000001614610def5760405162461bcd60e51b815260206004820152603860248201527f555550535570677261646561626c653a206d757374206e6f742062652063616c60448201527f6c6564207468726f7567682064656c656761746563616c6c00000000000000006064820152608401610931565b507f360894a13ba1a3210667c828492db98dca3e2076cc3735a920a3ca505d382bbc5b90565b61015f546040517f8e539e8c000000000000000000000000000000000000000000000000000000008152600481018390526000916001600160a01b031690638e539e8c90602401602060405180830381865afa158015610e79573d6000803e3d6000fd5b505050506040513d601f19601f820116820180604052508101906108839190612fcd565b6000610ed07f360894a13ba1a3210667c828492db98dca3e2076cc3735a920a3ca505d382bbc546001600160a01b031690565b905090565b60c9546000907f8c433a4cd6b51969eca37f974940894297b9fcf4b282a213fea5cd8f85289c9090610f16906001600160a01b031630335b846000366118df565b6000610f226101645490565b905080156110975761015f5481906001600160a01b0316639ab24eb0336040517fffffffff0000000000000000000000000000000000000000000000000000000060e084901b1681526001600160a01b039091166004820152602401602060405180830381865afa158015610f9b573d6000803e3d6000fd5b505050506040513d601f19601f82011682018060405250810190610fbf9190612fcd565b10801561105e575061015f5481906001600160a01b0316639ab24eb0336040517fffffffff0000000000000000000000000000000000000000000000000000000060e084901b1681526001600160a01b039091166004820152602401602060405180830381865afa158015611038573d6000803e3d6000fd5b505050506040513d601f19601f8201168201806040525081019061105c9190612fcd565b105b15611097576040517feab99344000000000000000000000000000000000000000000000000000000008152336004820152602401610931565b507fffffffffffffffffffffffffffffffffffffffffffffffffffffffffffffffff430160006110c682610e15565b905080600003611102576040517f7c176b7400000000000000000000000000000000000000000000000000000000815260040160405180910390fd5b61110c86866119cd565b9096509450611119611b09565b93506000610165858154811061113157611131612fe6565b9060005260206000209060070201905061114a85611b24565b15611184576040517f12dba68f00000000000000000000000000000000000000000000000000000000815260048101869052602401610931565b60018101805467ffffffffffffffff88811668010000000000000000027fffffffffffffffffffffffffffffffff00000000000000000000000000000000909216908a16171790556111d583611b74565b60018201805467ffffffffffffffff92909216700100000000000000000000000000000000027fffffffffffffffff0000000000000000ffffffffffffffffffffffffffffffff909216919091179055611244826112396101635463ffffffff1690565b63ffffffff16611bf8565b60028201819055600090819061125d908a908a90611c88565b6005850182905580516006860180547fffffffffffffffffffffffff0000000000000000000000000000000000000000166001600160a01b03909216919091179055909250905089156112b257600483018a90555b60005b8b81101561131157836003018d8d838181106112d3576112d3612fe6565b90506020028101906112e59190613015565b81546001810183556000928352602090922090916003020161130782826130f4565b50506001016112b5565b506113228e8e8e8e8e8c8f8f6120a8565b505050505050979650505050505050565b6000610165828154811061134957611349612fe6565b600091825260209091206007909102015460ff1692915050565b600061136e82611b24565b6113a7576040517f853c2a3000000000000000000000000000000000000000000000000000000000815260048101839052602401610931565b61088382612100565b6000610ed061012d5490565b60008082516000146113df57828060200190518101906113dc9190612fcd565b90505b6113ee89898989858a8a610ed5565b9998505050505050505050565b60c9547fbf04b4486c9663d805744005c3da000eda93de6e3308a4a7a812eb565327b78d90611434906001600160a01b03163033610f0d565b61143d82612100565b611476576040517f9fefd0f100000000000000000000000000000000000000000000000000000000815260048101839052602401610931565b6000610165838154811061148c5761148c612fe6565b6000918252602090912060079091020180547fffffffffffffffffffffffffffffffffffffffffffffffffffffffffffffff0016600117815590506115f36114dc60c9546001600160a01b031690565b8483600301805480602002602001604051908101604052809291908181526020016000905b828210156115e5576000848152602090819020604080516060810182526003860290920180546001600160a01b031683526001810154938301939093526002830180549293929184019161155490613053565b80601f016020809104026020016040519081016040528092919081815260200182805461158090613053565b80156115cd5780601f106115a2576101008083540402835291602001916115cd565b820191906000526020600020905b8154815290600101906020018083116115b057829003601f168201915b50505050508152505081526020019060010190611501565b505050508460040154612418565b505060405183907f712ae1383f79ac853f8d882153778e0260ef8f03b504e2866e0593e04d2b291f90600090a2505050565b60007fffffffff0000000000000000000000000000000000000000000000000000000082167fda35c6640000000000000000000000000000000000000000000000000000000014806108835750610883826124e7565b600054610100900460ff166116f85760405162461bcd60e51b815260206004820152602b60248201527f496e697469616c697a61626c653a20636f6e7472616374206973206e6f74206960448201527f6e697469616c697a696e670000000000000000000000000000000000000000006064820152608401610931565b610b9e81612616565b60c9547f821b6e3a557148015a918c89e5d092e878a69854a2d1a410635f771bd5a8a3f590610d4b906001600160a01b03163033610f0d565b7f4910fdfa16fed3260ed0e7147f7cc6da11a60208b5b9406d12a635614ffd91435460ff16156117725761176d836126cd565b505050565b826001600160a01b03166352d1902d6040518163ffffffff1660e01b8152600401602060405180830381865afa9250505080156117cc575060408051601f3d908101601f191682019092526117c991810190612fcd565b60015b61183e5760405162461bcd60e51b815260206004820152602e60248201527f45524331393637557067726164653a206e657720696d706c656d656e7461746960448201527f6f6e206973206e6f7420555550530000000000000000000000000000000000006064820152608401610931565b7f360894a13ba1a3210667c828492db98dca3e2076cc3735a920a3ca505d382bbc81146118d35760405162461bcd60e51b815260206004820152602960248201527f45524331393637557067726164653a20756e737570706f727465642070726f7860448201527f6961626c655555494400000000000000000000000000000000000000000000006064820152608401610931565b5061176d8383836127a3565b6040517ffdef91060000000000000000000000000000000000000000000000000000000081526001600160a01b0387169063fdef91069061192c90889088908890889088906004016132ce565b602060405180830381865afa158015611949573d6000803e3d6000fd5b505050506040513d601f19601f8201168201806040525081019061196d9190613321565b6119c5576040517f32dbe3b40000000000000000000000000000000000000000000000000000000081526001600160a01b03808816600483015280871660248301528516604482015260648101849052608401610931565b505050505050565b60008060006119db42611b74565b90508467ffffffffffffffff166000036119f757809250611a5c565b8492508067ffffffffffffffff168367ffffffffffffffff161015611a5c576040517f4cc9c0f400000000000000000000000000000000000000000000000000000000815267ffffffffffffffff808316600483015284166024820152604401610931565b61016354600090611a7f90640100000000900467ffffffffffffffff168561336b565b90508467ffffffffffffffff16600003611a9b57809250611b00565b8492508067ffffffffffffffff168367ffffffffffffffff161015611b00576040517f4cc9c0f400000000000000000000000000000000000000000000000000000000815267ffffffffffffffff808316600483015284166024820152604401610931565b50509250929050565b6000611b136113b0565b9050610e1261012d80546001019055565b60006101658281548110611b3a57611b3a612fe6565b6000918252602090912060079091020160010154700100000000000000000000000000000000900467ffffffffffffffff16151592915050565b600067ffffffffffffffff821115611bf45760405162461bcd60e51b815260206004820152602660248201527f53616665436173743a2076616c756520646f65736e27742066697420696e203660448201527f34206269747300000000000000000000000000000000000000000000000000006064820152608401610931565b5090565b6000620f4240821115611c43576040517fcc80c195000000000000000000000000000000000000000000000000000000008152620f4240600482015260248101839052604401610931565b611c4d828461338b565b92506000611c5e620f4240856133d1565b9050611c6d620f4240856133e5565b91508015611c8157611c7e826133f9565b91505b5092915050565b60408051606081018252600080825260208083018290528284018290528351600180825281860190955291938492918281019080368337019050509050600081600081518110611cda57611cda612fe6565b6001600160a01b0392831660209182029290920101526101675461015f546040517fcfda5478000000000000000000000000000000000000000000000000000000008152908316600482015243602482015260448101879052600092919091169063cfda5478906064016020604051808303816000875af1158015611d63573d6000803e3d6000fd5b505050506040513d601f19601f82011682018060405250810190611d879190613431565b610166546040517f4c96a3890000000000000000000000000000000000000000000000000000000081526001600160a01b03808416600483015292935060009290911690634c96a389906024016020604051808303816000875af1158015611df3573d6000803e3d6000fd5b505050506040513d601f19601f82011682018060405250810190611e179190613431565b6101685461015f546040517f6f24caaa0000000000000000000000000000000000000000000000000000000081524360048201526001600160a01b03918216602482015267016345785d8a00006044820152929350600092911690636f24caaa906064016020604051808303816000875af1158015611e9a573d6000803e3d6000fd5b505050506040513d601f19601f82011682018060405250810190611ebe9190613431565b604080516101808101825267ffffffffffffffff8c811682528b1660208083019190915282516060808201855261016b5460ff8082168452610100808304821685870152620100009092041683870152848601929092526014908401528351808501855261016154815261016254818401526080840152610169546001600160a01b0390811660a085015261016a54811660c0850152600160e08501528781169184019190915284811661012084015261014083018990526003610160808501919091525484517f2b786571000000000000000000000000000000000000000000000000000000008152945195965092946000949390911692632b7865719260048083019391928290030181865afa158015611fde573d6000803e3d6000fd5b505050506040513d601f19601f820116820180604052508101906120029190612fcd565b610160546040517f7d9f541c0000000000000000000000000000000000000000000000000000000081529192506000916001600160a01b0390911690637d9f541c906120529086906004016134a7565b6060604051808303816000875af1158015612071573d6000803e3d6000fd5b505050506040513d601f19601f8201168201806040525081019061209591906135b1565b919c919b50909950505050505050505050565b336001600160a01b0316837fa6c1f8f4276dc3f243459e13b557c84e8f4e90b2e09070bad5f6909cee687c9284848c8c8c8c8c6040516120ee9796959493929190613625565b60405180910390a35050505050505050565b600080610165838154811061211757612117612fe6565b600091825260208220610160546007929092020160058101546040517f1a8cbcaa00000000000000000000000000000000000000000000000000000000815260048101919091529093506001600160a01b0390911690631a8cbcaa90602401606060405180830381865afa158015612193573d6000803e3d6000fd5b505050506040513d601f19601f820116820180604052508101906121b791906135b1565b604081015183549192509060ff16156121d557506000949350505050565b806001600160a01b031663e3ff76066040518163ffffffff1660e01b8152600401602060405180830381865afa158015612213573d6000803e3d6000fd5b505050506040513d601f19601f820116820180604052508101906122379190613321565b61224657506000949350505050565b806001600160a01b031663fb346eab6040518163ffffffff1660e01b8152600401602060405180830381865afa158015612284573d6000803e3d6000fd5b505050506040513d601f19601f820116820180604052508101906122a89190612fcd565b600284015410156122be57506000949350505050565b6040517f93ec604f0000000000000000000000000000000000000000000000000000000081526000600482018190529081906001600160a01b038416906393ec604f906024016040805180830381865afa158015612320573d6000803e3d6000fd5b505050506040513d601f19601f82011682018060405250810190612344919061378a565b6040517f93ec604f00000000000000000000000000000000000000000000000000000000815260016004820152919350915060009081906001600160a01b038616906393ec604f906024016040805180830381865afa1580156123ab573d6000803e3d6000fd5b505050506040513d601f19601f820116820180604052508101906123cf919061378a565b915091508215806123de575080155b156123f25750600098975050505050505050565b838210156124095750600098975050505050505050565b50600198975050505050505050565b6040517fc71bf3240000000000000000000000000000000000000000000000000000000081526060906000906001600160a01b0387169063c71bf32490612467908890889088906004016137b6565b6000604051808303816000875af1158015612486573d6000803e3d6000fd5b505050506040513d6000823e601f3d908101601f191682016040526124ae9190810190613872565b604051919350915085907f712ae1383f79ac853f8d882153778e0260ef8f03b504e2866e0593e04d2b291f90600090a294509492505050565b60007fffffffff0000000000000000000000000000000000000000000000000000000082167f41de683000000000000000000000000000000000000000000000000000000000148061257a57507fffffffff0000000000000000000000000000000000000000000000000000000082167f2ae9c60000000000000000000000000000000000000000000000000000000000145b806125c657507fffffffff0000000000000000000000000000000000000000000000000000000082167f52d1902d00000000000000000000000000000000000000000000000000000000145b8061088357507f01ffc9a7000000000000000000000000000000000000000000000000000000007fffffffff00000000000000000000000000000000000000000000000000000000831614610883565b600054610100900460ff166126935760405162461bcd60e51b815260206004820152602b60248201527f496e697469616c697a61626c653a20636f6e7472616374206973206e6f74206960448201527f6e697469616c697a696e670000000000000000000000000000000000000000006064820152608401610931565b60c980547fffffffffffffffffffffffff0000000000000000000000000000000000000000166001600160a01b0392909216919091179055565b6001600160a01b0381163b61274a5760405162461bcd60e51b815260206004820152602d60248201527f455243313936373a206e657720696d706c656d656e746174696f6e206973206e60448201527f6f74206120636f6e7472616374000000000000000000000000000000000000006064820152608401610931565b7f360894a13ba1a3210667c828492db98dca3e2076cc3735a920a3ca505d382bbc80547fffffffffffffffffffffffff0000000000000000000000000000000000000000166001600160a01b0392909216919091179055565b6127ac836127ce565b6000825111806127b95750805b1561176d576127c8838361280e565b50505050565b6127d7816126cd565b6040516001600160a01b038216907fbc7cd75a20ee27fd9adebab32041f755214dbc6bffa90cc0225b39da2e5c2d3b90600090a250565b60606001600160a01b0383163b61288d5760405162461bcd60e51b815260206004820152602660248201527f416464726573733a2064656c65676174652063616c6c20746f206e6f6e2d636f60448201527f6e747261637400000000000000000000000000000000000000000000000000006064820152608401610931565b600080846001600160a01b0316846040516128a89190613988565b600060405180830381855af49150503d80600081146128e3576040519150601f19603f3d011682016040523d82523d6000602084013e6128e8565b606091505b509150915061291082826040518060600160405280602781526020016139de60279139612919565b95945050505050565b60608315612928575081612952565b8251156129385782518084602001fd5b8160405162461bcd60e51b81526004016109319190612b9b565b9392505050565b60405180606001604052806003906020820280368337509192915050565b60006020828403121561298957600080fd5b5035919050565b6000602082840312156129a257600080fd5b81357fffffffff000000000000000000000000000000000000000000000000000000008116811461295257600080fd5b6001600160a01b0381168114610b9e57600080fd5b80356129f2816129d2565b919050565b6000806000806000806000806000898b03610180811215612a1757600080fd5b8a35612a22816129d2565b995060208b0135612a32816129d2565b985060407fffffffffffffffffffffffffffffffffffffffffffffffffffffffffffffffc082011215612a6457600080fd5b60408b01975060607fffffffffffffffffffffffffffffffffffffffffffffffffffffffffffffff8082011215612a9a57600080fd5b5060808a01955060e08a0135612aaf816129d2565b9450612abe6101008b016129e7565b9350612acd6101208b016129e7565b9250612adc6101408b016129e7565b9150612aeb6101608b016129e7565b90509295985092959850929598565b60608101818360005b6003811015612b2557815160ff16835260209283019290910190600101612b03565b50505092915050565b600060208284031215612b4057600080fd5b8135612952816129d2565b60005b83811015612b66578181015183820152602001612b4e565b50506000910152565b60008151808452612b87816020860160208601612b4b565b601f01601f19169290920160200192915050565b6020815260006129526020830184612b6f565b7f4e487b7100000000000000000000000000000000000000000000000000000000600052602160045260246000fd5b6020810160038310612bf157612bf1612bae565b91905290565b7f4e487b7100000000000000000000000000000000000000000000000000000000600052604160045260246000fd5b604051601f8201601f1916810167ffffffffffffffff81118282101715612c4f57612c4f612bf7565b604052919050565b600067ffffffffffffffff821115612c7157612c71612bf7565b50601f01601f191660200190565b600082601f830112612c9057600080fd5b8135612ca3612c9e82612c57565b612c26565b818152846020838601011115612cb857600080fd5b816020850160208301376000918101602001919091529392505050565b60008060408385031215612ce857600080fd5b8235612cf3816129d2565b9150602083013567ffffffffffffffff811115612d0f57600080fd5b612d1b85828601612c7f565b9150509250929050565b60008083601f840112612d3757600080fd5b50813567ffffffffffffffff811115612d4f57600080fd5b602083019150836020828501011115612d6757600080fd5b9250929050565b60008083601f840112612d8057600080fd5b50813567ffffffffffffffff811115612d9857600080fd5b6020830191508360208260051b8501011115612d6757600080fd5b67ffffffffffffffff81168114610b9e57600080fd5b600080600080600080600060a0888a031215612de457600080fd5b873567ffffffffffffffff811115612dfb57600080fd5b612e078a828b01612d25565b909850965050602088013567ffffffffffffffff811115612e2757600080fd5b612e338a828b01612d6e565b909650945050604088013592506060880135612e4e81612db3565b91506080880135612e5e81612db3565b8091505092959891949750929550565b600080600080600080600060a0888a031215612e8957600080fd5b873567ffffffffffffffff811115612ea057600080fd5b612eac8a828b01612d25565b909850965050602088013567ffffffffffffffff811115612ecc57600080fd5b612ed88a828b01612d6e565b9096509450506040880135612eec81612db3565b92506060880135612efc81612db3565b9150608088013567ffffffffffffffff811115612f1857600080fd5b612f248a828b01612c7f565b91505092959891949750929550565b813563ffffffff8116808214612f4857600080fd5b82549150807fffffffffffffffffffffffffffffffffffffffffffffffffffffffff0000000083161783556020840135612f8181612db3565b7fffffffffffffffffffffffffffffffffffffffff000000000000000000000000929092161760209190911b6bffffffffffffffff000000001617815560409190910135600190910155565b600060208284031215612fdf57600080fd5b5051919050565b7f4e487b7100000000000000000000000000000000000000000000000000000000600052603260045260246000fd5b600082357fffffffffffffffffffffffffffffffffffffffffffffffffffffffffffffffa183360301811261304957600080fd5b9190910192915050565b600181811c9082168061306757607f821691505b6020821081036130a0577f4e487b7100000000000000000000000000000000000000000000000000000000600052602260045260246000fd5b50919050565b601f82111561176d57806000526020600020601f840160051c810160208510156130cd5750805b601f840160051c820191505b818110156130ed57600081556001016130d9565b5050505050565b81356130ff816129d2565b81547fffffffffffffffffffffffff0000000000000000000000000000000000000000166001600160a01b0391909116178155602082013560018201556040820135368390037fffffffffffffffffffffffffffffffffffffffffffffffffffffffffffffffe101811261317257600080fd5b8201803567ffffffffffffffff81111561318b57600080fd5b6020820191508036038213156131a057600080fd5b6002830167ffffffffffffffff8211156131bc576131bc612bf7565b6131d0826131ca8354613053565b836130a6565b6000601f83116001811461322257600084156131ec5750848201355b7fffffffffffffffffffffffffffffffffffffffffffffffffffffffffffffffff600386901b1c1916600185901b17835561329a565b600083815260209020601f19851690835b828110156132535787850135825560209485019460019092019101613233565b508582101561328e577fffffffffffffffffffffffffffffffffffffffffffffffffffffffffffffffff60f88760031b161c19848801351681555b505060018460011b0183555b50505050505050565b818352818160208501375060006020828401015260006020601f19601f840116840101905092915050565b6001600160a01b03861681526001600160a01b03851660208201528360408201526080606082015260006133066080830184866132a3565b979650505050505050565b805180151581146129f257600080fd5b60006020828403121561333357600080fd5b61295282613311565b7f4e487b7100000000000000000000000000000000000000000000000000000000600052601160045260246000fd5b67ffffffffffffffff81811683821601908111156108835761088361333c565b80820281158282048414176108835761088361333c565b7f4e487b7100000000000000000000000000000000000000000000000000000000600052601260045260246000fd5b6000826133e0576133e06133a2565b500690565b6000826133f4576133f46133a2565b500490565b60007fffffffffffffffffffffffffffffffffffffffffffffffffffffffffffffffff820361342a5761342a61333c565b5060010190565b60006020828403121561344357600080fd5b8151612952816129d2565b6002811061345e5761345e612bae565b9052565b600081518084526020840193506020830160005b8281101561349d5781516001600160a01b0316865260209586019590910190600101613476565b5093949350505050565b602081528151602082015260208201516040820152600060408301516134f0606084018260ff815116825260ff602082015116602083015260ff60408201511660408301525050565b50606083015160ff811660c0840152506080830151805160e084015260208101516101008401525060a08301516001600160a01b0381166101208401525060c08301516001600160a01b0381166101408401525060e083015161355761016084018261344e565b506101008301516001600160a01b03908116610180840152610120840151166101a08301526101408301516101e06101c0840152613599610200840182613462565b90506101608401516101e08401528091505092915050565b600060608284031280156135c457600080fd5b506040516060810167ffffffffffffffff811182821017156135e8576135e8612bf7565b60405282516135f6816129d2565b81526020830151613606816129d2565b60208201526040830151613619816129d2565b60408201529392505050565b67ffffffffffffffff8816815267ffffffffffffffff8716602082015260a06040820152600061365960a0830187896132a3565b82810360608401528085825260208201905060208660051b8301018760007fffffffffffffffffffffffffffffffffffffffffffffffffffffffffffffffa18a3603015b8982101561376f57601f1986850301855282358181126136bc57600080fd5b8b0180356136c9816129d2565b6001600160a01b03168552602081810135908601526040810135368290037fffffffffffffffffffffffffffffffffffffffffffffffffffffffffffffffe101811261371457600080fd5b0160208101903567ffffffffffffffff81111561373057600080fd5b80360382131561373f57600080fd5b606060408701526137546060870182846132a3565b9550505060208301925060208501945060018201915061369d565b50505080935050505082608083015298975050505050505050565b6000806040838503121561379d57600080fd5b825191506137ad60208401613311565b90509250929050565b6000606082018583526060602084015280855180835260808501915060808160051b86010192506020870160005b8281101561385d577fffffffffffffffffffffffffffffffffffffffffffffffffffffffffffffff8087860301845281516001600160a01b0381511686526020810151602087015260408101519050606060408701526138476060870182612b6f565b95505060209384019391909101906001016137e4565b50505050604092909201929092529392505050565b6000806040838503121561388557600080fd5b825167ffffffffffffffff81111561389c57600080fd5b8301601f810185136138ad57600080fd5b805167ffffffffffffffff8111156138c7576138c7612bf7565b8060051b6138d760208201612c26565b918252602081840181019290810190888411156138f357600080fd5b6020850192505b8383101561397457825167ffffffffffffffff81111561391957600080fd5b8501603f81018a1361392a57600080fd5b602081015161393b612c9e82612c57565b8181526040838301018c101561395057600080fd5b613961826020830160408601612b4b565b84525050602092830192909101906138fa565b602097909701519698969750505050505050565b60008251613049818460208701612b4b56fe2875696e7432353620616c6c6f774661696c7572654d61702c2075696e743820766f74654f7074696f6e2c20626f6f6c207472794561726c79457865637574696f6e29416464726573733a206c6f772d6c6576656c2064656c65676174652063616c6c206661696c6564",
    "linkReferences": {}
  },
  "methodIdentifiers": {
    "CREATE_PROPOSAL_PERMISSION_ID()": "11ce2438",
    "EXECUTE_PERMISSION_ID()": "0729d054",
    "INT_STATE_TREE_DEPTH()": "143154f9",
    "STATE_TREE_DEPTH()": "6e4f7a50",
    "UPGRADE_PLUGIN_PERMISSION_ID()": "c9c4bfca",
    "VOTE_OPTION_TREE_DEPTH()": "967e18ed",
    "canExecute(uint256)": "cc63604a",
    "checkerFactory()": "0e749eca",
    "coordinatorPubKey()": "31e766a5",
    "createProposal(bytes,(address,uint256,bytes)[],uint256,uint64,uint64)": "6e7fc2c3",
    "createProposal(bytes,(address,uint256,bytes)[],uint64,uint64,bytes)": "ea65ab82",
    "customProposalParamsABI()": "3d3f4b1b",
    "dao()": "4162169f",
    "execute(uint256)": "fe0d94c1",
    "getVotingToken()": "e28c3b19",
    "hasSucceeded(uint256)": "c218c132",
    "implementation()": "5c60da1b",
    "initialize(address,address,(uint256,uint256),(uint32,uint64,uint256),address,address,address,address,address)": "27b8c6dc",
    "maci()": "34a0922c",
    "minParticipation()": "054fd2c2",
    "minProposerVotingPower()": "f60046b2",
    "pluginType()": "41de6830",
    "policyFactory()": "b0680646",
    "proposalCount()": "da35c664",
    "proposals(uint256)": "013cf08b",
    "protocolVersion()": "2ae9c600",
    "proxiableUUID()": "52d1902d",
    "supportsInterface(bytes4)": "01ffc9a7",
    "totalVotingPower(uint256)": "536f9f42",
    "upgradeTo(address)": "3659cfe6",
    "upgradeToAndCall(address,bytes)": "4f1ef286",
    "verifier()": "2b7ac3f3",
    "vkRegistry()": "13fb8932",
    "voiceCreditProxyFactory()": "0a6c9c2d",
    "votingSettings()": "2ed5e02d"
  },
  "id": 127
}